:020000040800F2
:1000000080040020A1010008BF1600086D1200083E
:10001000BD1600081505000855170008000000006F
:10002000000000000000000000000000C3160008EF
:100030001705000800000000C1160008C5160008DA
:10004000BB010008BB010008BB010008BB010008A0
:10005000BB010008BB010008BB010008BB01000890
:10006000BB010008BB010008BB010008BB01000880
:10007000BB010008BB010008BB010008BB01000870
:10008000BB010008BB010008BB010008BB01000860
:10009000BB010008BB010008BB010008BB01000850
:1000A000BB010008BB010008BB010008BB01000840
:1000B000BB010008BB010008BB010008BB01000830
:1000C000BB010008BB010008BB010008BB01000820
:1000D000BB010008BB010008BB010008BB01000810
:1000E000BB010008BB010008BB010008BB01000800
:1000F000BB010008BB010008BB010008BB010008F0
:10010000BB010008BB010008BB010008BB010008DF
:10011000BB010008BB010008BB010008BB010008CF
:10012000BB010008BB010008BB010008BB010008BF
:10013000BB010008BB010008BB010008BB010008AF
:10014000BB010008BB010008BB010008BB0100089F
:10015000BB010008BB010008BB010008BB0100088F
:10016000BB010008BB010008BB010008BB0100087F
:10017000BB010008BB010008BB0100080000000033
:10018000BB010008BB010008DFF810D000F0B0F997
:100190000048004795170008AFF300808004002056
:1001A0000648804706480047FEE7FEE7FEE7FEE711
:1001B000FEE7FEE7FEE7FEE7FEE7FEE73917000889
:1001C000890100082DE9F05F0546002092469B4614
:1001D00088460646814640241BE02846414647465D
:1001E000224600F0E0F853465A46C01A914110D317
:1001F00011461846224600F0C7F82D1A67EB010891
:100200004F4622460120002100F0BEF817EB0009FE
:100210004E41201EA4F10104DFDC484631462A4647
:100220004346BDE8F09FD2B201E000F8012B491E21
:10023000FBD270470022F6E710B513460A46044683
:100240001946FFF7F0FF204610BD2DE9FE4F81EA69
:10025000030404F0004421F0004100944FF0000B2F
:1002600023F0004350EA01045ED052EA03045BD05D
:10027000C3F30A54C1F30A552C44A4F2F334019495
:10028000A0FB0254C1F3130141F48011C3F3130323
:1002900043F4801301FB024400FB034E840A970AD7
:1002A00044EA815447EA8357A4FB076802958D0A04
:1002B00005FB07854FEA932C04FB0C542705029D90
:1002C0004FEA065847EA1637B5EB08056EEB070C00
:1002D000870E920E47EA811742EA8312A7FB0201BA
:1002E000B6EB0B0164EB00042B0D43EA0C335E18F4
:1002F00044EB1C50DA465146E7FB0201C5F31304F8
:100300004FEA0B3343EA14534FEA0432019C43EAA9
:100310000603A4F10C040294009CCDE900B400F0A3
:1003200098F803B0BDE8F08F00200146F9E70EB55C
:10033000C10F80EAE0700844CA07002140F233434D
:100340008DE80E000A460B4600F083F803B000BDAE
:1003500001F0004330B421F0004150EA010206D020
:100360000A0DA2F56072C1F31301002A02DC30BC51
:1003700000207047440F44EAC104C100E01830BCBB
:1003800000EBC25000F01FB8202A04DB203A00FA2C
:1003900002F1002070479140C2F1200320FA03F3DC
:1003A000194390407047202A04DB203A21FA02F0DA
:1003B0000021704721FA02F3D040C2F1200291409F
:1003C0000843194670470029A8BF7047401C4900E0
:1003D00008BF20F00100704710B4B0FA80FC00FAAA
:1003E0000CF050EA010404BF10BC704749B1CCF1D5
:1003F000200421FA04F411FA0CF118BF0121214361
:100400000843A3EB0C01CB1D4FEA00614FEA10201B
:1004100042BF002010BC704700EBC35010440029BD
:10042000A4BF10BC7047401C490008BF20F0010069
:1004300010BC704710B5141E73F1000408DA401C9C
:1004400041F1000192185B411A4301D120F00100F3
:1004500010BD2DE9F04D92469B4611B1B1FA81F2E3
:1004600002E0B0FA80F220329046FFF78DFF04469A
:100470000F4640EA0A0041EA0B0153465A46084338
:1004800013D0114653EA010019D0C8F1400250467A
:10049000FFF789FF05460E46504659464246FFF78C
:1004A00073FF084305D0012004E020463946BDE82B
:1004B000F08D0020054346EAE0762C4337430A9846
:1004C0006305E40AA0EB08000022FD0A44EA475451
:1004D0000A3002D500200146E9E7010510196941FB
:1004E000DDE9084500196941BDE8F04DA2E70000CB
:1004F000064C074D06E0E06840F0010394E8070071
:1005000098471034AC42F6D3FFF742FEB418000807
:10051000D4180008FEE770477047000070B5044625
:1005200000F0F6F80546601C02D004480078044448
:1005300000F0EEF8401BA042FAD370BD1C00002072
:100540002DE9F84F00224FF0010803254FF00F0E60
:100550000B6808FA02F42340A3426ED14E68012EC4
:1005600005D0022E03D0112E01D0122E12D1866892
:100570004FEA420C05FA0CF7BE43CF6807FA0CF7B6
:10058000374387604668A6430C79C4F3001494404F
:1005900034434460C668570005FA07FC8C6826EAB5
:1005A0000C06BC403443C4604C68022C01D0122CB1
:1005B00013D1D40800EB8404A346D4F82090540748
:1005C0004FEAD46A0EFA0AF629EA06090E6906FA13
:1005D0000AF646EA0906CBF8206006680C7926EA96
:1005E0000C0604F00304BC40344304604C68E4008F
:1005F00065D5364C266846F480462660246822F08D
:10060000030604F480440094314C3444A446D4F8E6
:1006100008489607370F0EFA07F6B4432D4EB0423E
:1006200001D1002624E02C4EB04201D101261FE06A
:100630002A4EB04202D102261AE040E0284EB042D3
:1006400001D1032614E0274EB04201D104260FE069
:10065000254EB04201D105260AE0244EB04201D118
:10066000062605E0224EB04201D1072600E008260A
:10067000BE402643CCF808681E4E34684F689C4341
:10068000FF0300D51C4334601A4C241D26684F68B4
:100690009E43BF0300D51E432660164E08363468BD
:1006A0004F689C43FF0200D51C433460114E0C364A
:1006B00034684F689C43BF0200D51C433460521C11
:1006C000102AFFF445AFBDE8F88F0000443802401F
:1006D00000300140000002400004024000080240D7
:1006E000000C0240001002400014024000180240BA
:1006F000001C0240003C0140426931EA020200D184
:100700000904816170470AB1816170470904FBE700
:1007100001488068704700001C00002070B504008C
:1007200025D094F83D00002520B984F83C5020469F
:1007300000F03EFA242084F83D002068016821F092
:10074000010101602068016841F4004101602068F6
:10075000016821F40041016000F084FB4D4A6168AA
:10076000914201D84C4900E04C49884201D2012015
:1007700070BD4B492368B0FBF1F15E6826F03F067F
:100780000E435E606368934206D94FF496735943F3
:100790004FF47A73B1FBF3F12368491C1E6A26F00B
:1007A0003F06314319626168914210D84900401EEA
:1007B000B0FBF1F2521CC2F30B02042A01D2042056
:1007C00022E0B0FBF1F0401CC0F30B001CE0A2687B
:1007D000F2B301EBC10303EB0116431EB3FBF6F3C7
:1007E0005B1C43F480431B0549D092B301EBC1026B
:1007F00002EB0111401EB0FBF1F0401CC0F30B00F6
:1008000040F4804040F400402168CA694CF6FF7310
:100810009A431043C861D4E9071001432068026875
:1008200022F0C00211430160D4E9030101432068B2
:10083000826848F2FF339A4311438160D4E905018D
:1008400008432168CA6822F0FF021043C86001E033
:100850000EE016E02068016841F0010101602564A6
:10086000202084F83D00256384F83E50002070BDB0
:1008700001EB4106431EB3FBF6F35B1CB3E701201B
:10088000C2E701EB4101401EB0FBF1F0401CC0F398
:100890000B00B7E7A086010080841E0000093D0020
:1008A00040420F002DE9F84F1F4690468A46044605
:1008B000DDF82890FFF72CFF054694F83D0020282E
:1008C00075D1192301226C492046009500F0D0FD16
:1008D0000028F5D194F83C00012868D0012084F864
:1008E0003C0020680168C90703D1016841F001019B
:1008F00001602068016821F400610160222084F811
:100900003D00102084F83E0000262664C4F82480B0
:100910006785608D20855948E0622B464A465146DE
:10092000204600F0BBFC002878D1208D544F68B1E0
:10093000012814D002282068016816D041F4806193
:100940000160206841698069009087E02068416902
:1009500081690091016841F4007101607EE02068C6
:10096000016821F480610160F0E721F48061016099
:100970002068016841F40061E2E7032848D80128B3
:100980000AD0022814D04B46002239462046009552
:1009900000F06EFDD8BB27E02A464946204600F00D
:1009A000E6FDA0BB20680069616A08704DE061E067
:1009B0004B46002239462046009500F059FD30BBD9
:1009C0002068016841F40071016020680069616A73
:1009D0000870606A401C6062218D491E2185618D0E
:1009E000491E618521682EE02068016821F480613C
:1009F000016020680069616A0870606A401C60627A
:100A0000208D401E2085608D401E6085D0E705E06A
:100A10002A464946204600F0AAFD10B10120BDE853
:100A2000F88F20680069616A0870606A401C606223
:100A3000218D491E2185618D491E618521684A6984
:100A4000D24352070AD409690170606A401C60628F
:100A5000208D401E2085608D401E6085208D0028E1
:100A60008BD1202084F83D0084F83E6084F83C60FF
:100A70000020D4E70220D2E7020010000000FFFFB0
:100A8000040001002DE9F84F1F4690468A460446AF
:100A9000DDF82890FFF73CFE054694F83D0020283D
:100AA0007FD11923012240492046009500F0E0FC47
:100AB000002876D194F83C00012872D0012084F8F7
:100AC0003C0020680168C90703D1016841F00101B9
:100AD00001602068016821F400610160212084F830
:100AE0003D00102084F83E0000262664C4F82480CF
:100AF0006785608D20852D48E0622B464A46514629
:100B0000204600F041FC90B920684169806900905E
:100B100036E02A464946204600F05CFD50B1206C84
:100B2000042804D12068016841F4007101600120AB
:100B3000BDE8F88F606A216800780861606A401C2F
:100B40006062618D491E6185218D491E89B22185B2
:100B500022685369DB435B070BD451B10078106105
:100B6000606A401C6062608D401E6085208D401E62
:100B700020852A464946204600F054FC0028CED164
:100B8000208D0028C5D154F83D0B016841F4007157
:100B90000160202004F81E09E67766770020C7E789
:100BA000FFE70220C4E70000020010000000FFFF82
:100BB00010B586B0044614216846FFF73BFB134985
:100BC0002068884220D11248016841F0020101608A
:100BD0000068694600F002000590C02000901220D5
:100BE0000190012002900320039004200490094802
:100BF000FFF7A6FC06481030016841F400110160BF
:100C0000006800F40010059006B010BD00540040CC
:100C100030380240000402400248816802781144E2
:100C2000816070471C0000200B4810B5016841F43A
:100C300000710160016841F480610160016841F464
:100C400080710160032000F061F8002000F006F8D8
:100C500000F024F8002010BD003C024070B50D4D9E
:100C600004464FF47A712878B1FBF0F00A4909681C
:100C7000B1FBF0F000F0E6FA48B9102C07D20022E0
:100C80002146501E00F022F800206C6070BD01204B
:100C900070BD00001C000020280000200A4808B594
:100CA000016841F480410160006800F480400090D8
:100CB0000548001F016841F080510160006800F0A4
:100CC0008050009008BD000044380240F0B40E4B44
:100CD0001B680C46C3F30223C3F10705042D00D99A
:100CE0000425191D072901D2002300E0DB1E01267F
:100CF00006FA05F1491E214099409E40761E164095
:100D00003143F0BC00F027BD0CED00E0064900F0D7
:100D1000070208684FF6FF03184040EA0220034A22
:100D200010430860704700000CED00E00000FA0579
:100D30002DE9F0470E46050065D0DFF81481D8F89C
:100D40000000F7B200F00F00B04207D288F8007040
:100D5000D8F8000000F00F00B04254D128683D4C94
:100D6000810712D5400703D5206840F4E050206089
:100D70002878000703D5206840F460402060206890
:100D8000A96820F0F000084320602878C0072DD023
:100D9000304968680839012812D0022813D0032886
:100DA00011D00968890700292DDA216821F0030193
:100DB00001432160FFF7ACFC814641F2883A0EE026
:100DC00009688903EFE709688901ECE7FFF7A0FCF0
:100DD000A0EB0901514502D90320BDE8F087206846
:100DE000696800F00C00B0EB810FEFD1D8F800106B
:100DF000404601F00F01B14207D90770006800F0CA
:100E00000F00B04201D00120E7E72878400705D560
:100E10002068E96820F4E050084320602878000743
:100E200006D52068296920F4604040EAC1002060AE
:100E300000F028F82168084AC1F30311515CC8404A
:100E40000649086006480068FFF708FF0020C4E76D
:100E5000003C0240083802409C180008280000208E
:100E6000200000200448054900680968044AC1F3CD
:100E70008221515CC8407047280000200838024099
:100E8000AC180008154810B5006810F00C021448A2
:100E900013D01449042A0FD0082A0ED10F4C241F56
:100EA0002268236802F03F025B0207D52068C0F386
:100EB0008810A0FB010106E0084610BD2168C1F3BF
:100EC0008811A1FB00010023FFF77CF92168C1F321
:100ED0000141491C4900B0FBF1F010BD0838024047
:100EE0000024F40040787D012DE9F84F04006ED015
:100EF0002078DFF83C93C007A9F104054AD009F136
:100F000004000168C1F38101012908D00068C0F321
:100F1000810002280AD1D9F80000400206D52868CD
:100F2000800337D560680028E1D033E06068B0F511
:100F3000803F10D0B0F5A02F286810D020F480306A
:100F40002860286820F4802028606068A8B1FFF736
:100F5000DFFB06460DE0286840F48030F4E740F4FB
:100F600080202860F7E700BFFFF7D2FB801B6428D2
:100F700073D828688003F7D50CE0FFF7C9FB064655
:100F800005E000BFFFF7C4FB801B6428F0D8286889
:100F90008003F7D42078DFF89C8280074FF0000AA6
:100FA0003ED5A348001D016811F00C0F08D0006861
:100FB000C0F3810002280BD1D9F80000400207D409
:100FC0002868800716D5E068012800D112E02BE1DF
:100FD000E068B8B10120C8F80000FFF799FB0646A9
:100FE00005E000BFFFF794FB801B0228C0D82868EB
:100FF0008007F7D52868216920F0F80040EAC10091
:1010000028600DE0C8F800A0FFF782FB064604E068
:10101000FFF77EFB801B02281FD828688007F7D4C3
:101020002078000722D5824E83486169703671B1FD
:1010300001210160FFF76CFB074604E0FFF768FB46
:10104000C01B022809D830688007F7D50EE0C0F829
:1010500000A0FFF75DFB074605E082E0FFF758FBC5
:10106000C01B02287DD830688007F7D4207840075D
:1010700068D5DFF8BCB100270BF13C0BDBF80000B2
:10108000C0000BD4DBF8001041F08051CBF8001009
:10109000DBF80000012700F080500090674E3068B8
:1010A000C00510D4306840F480703060FFF730FB2A
:1010B000009005E0FFF72CFB0099401A022850D859
:1010C0003068C005F6D55A4EA0686C3601280FD09E
:1010D0000528306810D020F001003060306820F022
:1010E00004003060A068B8B1FFF712FB00900FE079
:1010F000306840F00100F4E740F004003060F7E7AA
:10110000FFF706FB0099411A41F28830814266D808
:1011100030688007F4D50EE0FFF7FAFA009007E098
:10112000FFF7F6FA0099411A41F28830814256D809
:1011300030688007F4D42FB1DBF8001021F0805123
:10114000CBF80010A069C8B33949091D0968C1F37B
:10115000810102294AD00228504607D0C8F8600011
:1011600000E03CE0FFF7D4FA04463BE04746C8F80D
:101170006000FFF7CDFA064605E000BFFFF7C8FAAA
:10118000801B02282BD828688001F7D4D4E90701F6
:101190000843A16A2A4A490802EB0141626A41EA0E
:1011A0008211084394F82C1040EA0161C9F800103C
:1011B00001203866FFF7ACFA044606E036E000BFCF
:1011C000FFF7A6FA001B022809D828688001F7D586
:1011D0002CE000BFFFF79CFA001B022802D9032075
:1011E000BDE8F88F28688001F4D41FE00128F7D00B
:1011F000D9F80000E26900F48001914214D1226A1A
:1012000000F03F0191420FD147F6C071626A014080
:10121000914209D1A26A00F44031914204D1E16ABD
:1012200000F07060884201D00120D9E70020D7E7A4
:101230000438024000004742800E474200700040E0
:101240000000FFFF10B5401EB0F1807F01D30120E8
:1012500010BD4FF0E02460610F21601700F07BFAB1
:101260000020A06107202061002010BDFEE701687A
:101270004A69D24352050FD46FF480624A6100215B
:1012800040F8301F202242738173026942F0040249
:101290000261017301207047002070472DE9F84F6B
:1012A0000446C06A1E4693460D4621680A6842F409
:1012B00080620A60082807D0012805D010F5803F19
:1012C00002D0206B112804D12068016841F480719C
:1012D00001604FF001195B46002249462046009606
:1012E00000F0C6F84FF4007840B120680068C005EF
:1012F00001D5C4F840800320BDE8F88F2069DFF8ED
:1013000084A0B0F5804F0FD00620216800EAD517E1
:1013100047F0F000086133465A460AF106012046BC
:1013200000F0DAF858BB03E0E8B240F001001CE03E
:101330002168E8B2086133465A465146204600F01B
:10134000CBF8E0B92068416981690091016841F4F6
:10135000807101605B46002249462046009600F0FD
:1013600087F80028C1D147F0F100216808613346B1
:101370005A465146204600F0AFF80028BCD0012064
:10138000BAE7000002000100F8B50446C06A1E4634
:101390000D461746082807D0012805D010F5803FD4
:1013A00002D0206B122804D12068016841F48071BA
:1013B0000160134600224FF001112046009600F014
:1013C00057F840B120680068C00502D54FF400709E
:1013D00020640320F8BD2069B0F5804F0ED00620B0
:1013E000216800EAD51040F0F000086133463A4623
:1013F0000B49204600F070F878B902E005F0FE00D5
:1014000000E0E8B221680861054933463A46891F81
:10141000204600F061F80028DCD00120F8BD000073
:101420000800010070B516460D4604460DE0204642
:10143000FFF71DFF08B1012070BD681C05D0FFF744
:1014400067F9801BA84207D835B120684069C043BE
:101450004007ECD4002070BD002044F8300F20215C
:101460006173A073216941F0200121612073E2E7DB
:101470002DE9F0471E4690460D460446C1F3074746
:10148000DDF8209008E0701C06D0FFF741F9A0EBD2
:101490000900B0420FD876B12068012F18D08069BA
:1014A00025EA00000004000C14D000214145EAD0D8
:1014B0000020BDE8F087002044F8300F2021617340
:1014C000A073216941F02001216120730120F0E720
:1014D0004069E5E70121E9E72DE9F0479A469146A1
:1014E0000E46044600254FF02008C1F3074725E0CB
:1014F00020684069C043400514D42068016841F465
:101500000071016021686FF480604861256384F890
:101510003D8084F83E50206C40F00400206484F844
:101520003C501FE0B9F1FF3F08D0FFF7F1F8A0EB06
:101530000A0149450CD8B9F1000F09D02068012FE4
:1015400013D0806926EA00000004000C0BD0CFE71E
:1015500044F8305F84F80D80A573206940F02000C6
:10156000206125730120BDE8F0874069EAE72DE995
:10157000F041002590460E460446202717E04069BA
:10158000C043C0060CD454F8301B6FF01000486103
:1015900044F810596777A577206A2062257717E00D
:1015A000FFF7B6F8A0EB0800B04208D83EB12068BB
:1015B0004169C9434906E2D40020BDE8F08144F8FE
:1015C000305F6773A573206940F0200020612573A8
:1015D0000120F2E770B516460D4604460DE02046A0
:1015E000FFF745FE08B1012070BD681C05D0FFF76C
:1015F0008FF8801BA84207D835B120684069C043E6
:101600000006ECD4002070BD002044F8300F2021EB
:101610006173A073216941F0200121612073E2E729
:1016200030B587B014216846FEF704FE1148002447
:10163000016841F001010160016801F001010591BB
:10164000016841F00201016000680B4D00F00200EA
:101650000590224602212846FFF755F80220009007
:101660000120CDE90104694628460394FEF768FF8E
:1016700007B030BD30380240000002400D4810B5C0
:101680000B4901600C49416000214FF480428160A8
:10169000C0E9031241618161C1610162FFF73EF857
:1016A000002803D0BDE81040FEF736BF10BD000093
:1016B000005400402C000020A0860100FEE7704787
:1016C00070477047FFF7A8BA10B592B0302168464E
:1016D000FEF7B0FD14210CA8FEF7ACFD1448002461
:1016E000016841F080510160006800F08050119065
:1016F0001048016841F4804101600068069400F4DC
:10170000804011900220009001200390102004904E
:101710006846FFF7E9FB0F20CDE90C040E940F9407
:1017200000210CA81094FFF703FB12B010BD0000BD
:1017300040380240007000400548016841F47001E3
:10174000016003494FF00060803908607047000075
:1017500088ED00E0FEE70907090E002804DB00F130
:10176000E02080F80014704700F00F0000F1E02046
:1017700080F8141D704702E008C8121F08C1002A33
:10178000FAD170477047002001E001C1121F002A02
:10179000FBD170472DED028B82B0FFF745FAFFF7C2
:1017A00093FFFFF73DFFFFF769FF374C1C2608202A
:1017B000267060700A2502232246D0213348009506
:1017C000FFF760F9267001232246D0212F480095AB
:1017D000FFF758F9002666700123621CD1212B48BF
:1017E0000095FFF75FF8B1469FED298BDFF8A8B0B1
:1017F000A0464FF03B0AA4F1140688F800A0444626
:101800000123214AD02121480095FFF73BF984F8B4
:1018100001900623621CD1211C480095FFF742F875
:1018200034F8010F40BA404200B23080618849BAB2
:1018300049420FB27780A18849BA0CB2B480FEF752
:1018400076FD53EC182BFEF700FDFEF781FDB0602E
:101850003846FEF76CFD53EC182BFEF7F6FCFEF74E
:1018600077FDF0602046FEF762FD53EC182BFEF783
:10187000ECFCFEF76DFD306102215846FEF73CFF9F
:101880003220FEF74BFEB8E7140000202C000020A9
:10189000000000000000203F0000024000000000A7
:1018A0000000000001020304060708090000000010
:1018B00001020304D4180008000000202C000000DE
:1018C00076170008001900082C00002054040000BE
:1018D0008617000800000000000000000000000063
:1018E00000000000000000000000000000000000F8
:1018F0000100000010000000000000000024F400BF
:040000050800018965
:00000001FF
