:020000040800F2
:1000000080050020A10100081F2200081F20000811
:100010001D220008710500080724000800000000E8
:100020000000000000000000000000002322000883
:10003000A90600080000000021220008252200086F
:10004000BB010008BB010008BB010008BB010008A0
:10005000BB010008BB010008BB010008BB01000890
:10006000BB010008BB010008BB010008BB01000880
:10007000BB010008BB010008BB010008BB01000870
:10008000BB010008BB010008BB010008BB01000860
:1000900075050008BB010008BB010008BB01000892
:1000A000BB010008BB010008BB010008BB01000840
:1000B000C9220008BB010008BB010008BB01000801
:1000C000BB010008BB010008BB010008BB01000820
:1000D000BB010008BB010008BB010008BB01000810
:1000E000BB010008BB010008BB010008BB01000800
:1000F000BB010008BB010008BB010008BB010008F0
:10010000BB010008BB010008BB010008BB010008DF
:10011000BB010008BB010008BB010008BB010008CF
:10012000F9050008BB010008BB010008BB0100087D
:10013000BB010008BB010008BB010008BB010008AF
:10014000BB010008BB010008BB010008BB0100089F
:10015000BB010008BB010008BB010008BB0100088F
:10016000BB010008BB010008BB010008BB0100087F
:10017000BB010008BB010008BB0100080000000033
:10018000BB010008BB010008DFF810D000F002F945
:100190000048004761250008AFF30080800500207B
:1001A0000648804706480047FEE7FEE7FEE7FEE711
:1001B000FEE7FEE7FEE7FEE7FEE7FEE7AD2200080A
:1001C000890100082DE9F05F0546002092469B4614
:1001D00088460646814640241BE02846414647465D
:1001E000224600F06AF853465A46C01A914110D38D
:1001F00011461846224600F051F82D1A67EB010807
:100200004F4622460120002100F048F817EB000974
:100210004E41201EA4F10104DFDC484631462A4647
:100220004346BDE8F09FD2B201E000F8012B491E21
:10023000FBD270470022F6E710B513460A46044683
:100240001946FFF7F0FF204610BD0EB5C10F80EA3A
:10025000E0700844CA07002140F233438DE80E00E5
:100260000A460B4600F048F803B000BD30B5041E46
:1002700071F1000404DB4FF00044404264EB0101E3
:10028000141E73F1000405DB1C464FF0004352427C
:1002900063EB0403994208BF904230BD202A04DB7F
:1002A000203A00FA02F1002070479140C2F1200389
:1002B00020FA03F3194390407047202A04DB203AC8
:1002C00021FA02F00021704721FA02F3D040C2F176
:1002D0002002914008431946704710B5141E73F16F
:1002E000000408DA401C41F1000192185B411A43F6
:1002F00001D120F0010010BD2DE9F04D92469B4642
:1003000011B1B1FA81F202E0B0FA80F220329046E7
:10031000FFF7C4FF04460F4640EA0A0041EA0B011A
:1003200053465A46084313D0114653EA010019D0E8
:10033000C8F140025046FFF7C0FF05460E46504642
:1003400059464246FFF7AAFF084305D0012004E0C2
:1003500020463946BDE8F08D0020054346EAE076A8
:100360002C4337430A986305E40AA0EB08000022F7
:10037000FD0A44EA47540A3002D500200146E9E765
:10038000010510196941DDE9084500196941BDE819
:10039000F04DA2E7064C074D06E0E06840F001038F
:1003A00094E8070098471034AC42F6D3FFF7F0FE0C
:1003B000742600089426000810B50146806B026C74
:1003C00012F0500F05D0026CD20626D500F016FAB6
:1003D00010BD016C41F40071016401688A6812F07B
:1003E000405F17D1027EAAB9CA6A12F4700F02D018
:1003F0008A6852050ED44A6822F020024A60016CD5
:1004000021F480710164016CC90403D4016C41F0D2
:100410000101016400F0F0F910BD806BC26CBDE811
:1004200010400846104710B5806B40210164416CB4
:1004300041F00401416400F0E1F910BD10B5806B9A
:1004400000F0DBF910BD0000464910B54A6822F4FF
:1004500040324A604A6843681A434A6001684A6801
:1004600022F480724A6001684A68036942EA032202
:100470004A6001684A6822F040724A6001684A682E
:1004800083681A434A6001688A6822F400628A60BD
:1004900001688A68C3681A438A60816A6FF0706273
:1004A000D14201688A6822F070628A6001688A68B5
:1004B0000CD0836A1A438A6001688A6822F040522D
:1004C0008A6001688A68C36A1A4301E022F04052D8
:1004D0008A6001688A6822F002028A6001688A687C
:1004E000037E42EA43028A6090F8201000290168E6
:1004F0004A680FD042F400624A6001684A6822F4F8
:1005000060424A6001684A68174C436A04EB43330F
:100510001A4301E022F400624A600168CA6A22F4C8
:100520007002CA620168CA6A838B104C04EB0353E1
:100530001A43CA6201688A6822F400728A600168FC
:100540008A6890F8303042EA43228A6001688A68FB
:1005500022F480628A6001688A68406942EA8020E9
:10056000886010BD0023014000E0FFFF0000F0FFA5
:10057000FEE70000014800F0CCBB0000180100209D
:1005800010B50C4800F09CFD0B49C020086001200C
:1005900048600020C86008220A6188600875074921
:1005A000087048708870C870087148718871C87187
:1005B00010BD0000180100203C0000201A0000209F
:1005C00000B58BB0002001210190029008910590A8
:1005D000CDE906010490009003900E200990694631
:1005E000044800F09BFA0221024800F017FA0BB011
:1005F00000BD000018010020014800F095BD00007A
:10060000B800002001681823CAB2103AB2FBF3F216
:10061000054B6FF30901032A9B5CC36500D9091DD3
:1006200081650846704700005A26000810B501464B
:1006300000208B698A6A4FF0C07453B1B3F5005F34
:1006400015D072B1012A0CD0022A0AD0032A09D18E
:1006500004E01AB1012A06D0022A03D1C96AC901ED
:1006600000D5012010BDC96AA142FAD010BD002AF0
:10067000F7D0012AF2D0022AF3D0032AF3D010BD1A
:1006800030B50468256825F480252560046863601A
:100690008368402B036803D099600068C26030BD56
:1006A0009A600068C16030BD7047704778B500241B
:1006B000009490F83C20012A19D0012280F83C20B7
:1006C0000A6807230568092A13D9EE680A3A02EB7B
:1006D000420293409E43EE600B788A680A3B03EB2C
:1006E00043039A400368DD682A43DA6010E0022081
:1006F00078BD2E6902EB420293409E432E610B7837
:100700008A6803EB43039A4003681D692A431A6110
:100710004A681F23072A13D205686E6B521E02EB2C
:10072000820293409E436E630B790A885B1E92B2ED
:1007300003EB83039A4003685D6B2A435A6327E007
:1007400005680D2A12D22E6BD21F02EB8202934053
:100750009E432E630B790A88DB1F92B203EB83035F
:100760009A4003681D6B2A431A6311E0EE6A0D3A42
:1007700002EB820293409E43EE620B790A880D3BA6
:1007800092B203EB83039A400368DD6A2A43DA627C
:10079000164B0568144A9D4206D10D68122D03D1EF
:1007A000556845F48005556005689D4218D10B6871
:1007B000102B01D0112B13D1536843F40003536065
:1007C000096810290CD10A490A4A0968B1FBF2F1FB
:1007D00001EB8101490000E0491E00910029FBD195
:1007E00080F83C40002078BD0023014000200140FB
:1007F0003800002040420F0070477047704770B5C6
:1008000004004FF0000503D0206C002610B107E073
:10081000012070BD204600F01DF8666484F83C603D
:10082000206CC00610D4206C20F4885040F00200E8
:1008300020642046FFF708FE6664206C20F002006A
:1008400040F00100206400E0012584F83C60284667
:1008500070BD000070B586B0064614216846FFF7EB
:10086000E9FC1D493068884234D11C4800250168E4
:1008700041F480710160006800F4807005901748B1
:100880001438016841F0010101600068694600F018
:10089000010005901C2000900320CDE901051048BF
:1008A00000F0C6FD104C0F48C4E900050015A56016
:1008B000C4E90350400060618000A0614011C4E9B8
:1008C00007052046656200F0FFFC08B1FFF7EDFE6A
:1008D000B463A66306B070BD0020014044380240F6
:1008E0000000024010640240B8000020F8B50E4637
:1008F00000210446009190F83C00012807D0012017
:1009000084F83C0020688368DB0702D011E00220F5
:10091000F8BD836843F0010383603748374B0068B4
:10092000B0FBF3F000EB400000E0401E0090002818
:10093000FBD120688368DB075CD0236C40F2016543
:10094000AB4343F4807323644068400505D5206CB5
:1009500020F4005040F480502064206CC00404D582
:10096000606C20F00600606400E0616484F83C1074
:10097000A16B2448224DC863A16B23480864A16B76
:100980002248C86421686FF022000860206841682E
:1009900041F0806141602068816841F4807181602C
:1009A0002168134632464C31A06B00F0F7FC6868B2
:1009B0001749C006206806D088421BD1816811F013
:1009C000405F13D016E08842F8D0124A904203D11B
:1009D000D1F80423D206F1D00F4A90420AD1D1F8BF
:1009E000041301F01F011029E8D303E0816841F0EE
:1009F000804181600020F8BD3800002040420F0097
:100A000000230140B90300083D0400082704000842
:100A100000200140002101400022014090F82020E8
:100A2000012A07D0022A05D0416A41F4802141629F
:100A300001207047006842690A4342610020704704
:100A4000F0B590F820500468A468012D05D0022D5F
:100A500003D0416A41F480215DE014F0406F01D180
:100A6000E50055D5C4F30164022C03D9416A41F471
:100A7000000150E00125A5401D608D684FF4C07352
:100A80009DB1CE6835434E6845EAC605066803EB5E
:100A90000417F5514FF4C275076805EB04150E698C
:100AA0007E51097D012905D009E00E88CD6845EA0F
:100AB0004655EBE701684E5946F480764E51117960
:100AC000D579567941EA056195792D0445EA0625DF
:100AD00029434FF4C676056806EB0416A951117830
:100AE000D57841EA0561957852782D0445EA0222CD
:100AF00011434FF4C475026805EB041551510068A9
:100B000003EB0411425842F0010242500020F0BDB4
:100B1000416A41F4001141620120F0BD10B590F826
:100B20002020012A07D0022A05D0416A41F4802101
:100B30004162012010BD3B48D0F8002242F0010282
:100B4000C0F80022D0F8002222F47C52C0F8002223
:100B5000D0F800224B6A42EA0322C0F800220A7D44
:100B600002F01F0301229A40D0F81C329343C0F8D0
:100B70001C32CB69B3B9D0F80C329343C0F80C32B5
:100B80008C894B6864F31F434C6900EBC404C4F8C0
:100B900040320C890B6864F31F434C6900EBC404BA
:100BA000C4F84432CB69012B16D1D0F80C32134370
:100BB000C0F80C320C884B6864F31F434C6900EB9F
:100BC000C404C4F840320C89CB6864F31F434C69F9
:100BD00000EBC404C4F844328B69002BD0F8043213
:100BE0000ED01343C0F804320B69002BD0F8143236
:100BF00008D01343C0F81432096A012904D008E070
:100C00009343EFE79343F5E7D0F81C121143C0F884
:100C10001C12D0F8001221F00101C0F800120020CF
:100C200010BD000000640040704730B590F82040CF
:100C3000012C05D0022C03D0416A41F480215DE0F3
:100C40000468002955D02469A40754D04FF4D874FF
:100C5000056804EB01142D5915F00405956005682D
:100C60002D594ED0ED08556005682C5904F002044A
:100C7000D4604FF4DA74056804EB01142D5905F0C3
:100C80000F05156105682D59C5F3072595610568A0
:100C90002C59240C54614FF4DC72046802EB0112ED
:100CA000A4581C700468A458240A5C700468A458F2
:100CB000240C9C700468A258120EDA704FF4DE7295
:100CC000046802EB0112A4581C710468A458240A99
:100CD0005C710468A458240C9C710468A258120E1C
:100CE000DA71006881B1016941F0200101610020E1
:100CF00030BDE468A8E7416A41F400114162012077
:100D000030BD6D0D1560AFE7C16841F02001C160D5
:100D1000EDE72DE9F05F0546006800244669D0F84C
:100D200004908768D0F80CB0D0F810A0D0F81880E4
:100D3000F10748D0F90714D001218160B80703D525
:100D4000284600F0EAF90CE0780702D54FF4006479
:100D500007E0380702D54FF4805402E0284600F03F
:100D6000DBF9F80516D529684FF480708860B8055E
:100D700003D5284600F0D3F90CE0780502D544F4F9
:100D8000005407E0380502D544F4804402E02846C8
:100D900000F0C4F9F80316D529684FF48030886054
:100DA000B80303D5284600F0BCF90CE0780302D55F
:100DB00044F4004407E0380302D544F4803402E0F0
:100DC000284600F0ADF9300707D55FEACB6004D5BF
:100DD0002968102044F40074C86070074FF00807B9
:100DE00007D55FEA0B7004D52868C760284600F075
:100DF00057F9B00706D52868C068800702D0284692
:100E000000F050F9700607D55FEACA6004D529687A
:100E1000102044F480640861B00607D55FEA0A70C8
:100E200004D528680761284600F046F9F00606D583
:100E300028680069800702D0284600F03EF9B00318
:100E400008D55FEAC96005D52968102048602846A2
:100E500000F034F9F00307D55FEA097004D528687B
:100E60004760284600F05EF9300446D55FEA4970D5
:100E700040D5F00504D55FEAC87001D044F0010404
:100E8000B00504D55FEA887001D544F0020470050E
:100E900004D55FEA487001D544F00404300529D533
:100EA00018F0700F26D008F07000402815D006DC2E
:100EB000102809D020280AD0302816D10AE050285E
:100EC0000ED0602811D10EE044F008040DE044F08B
:100ED00010040AE044F0200407E044F0400404E079
:100EE00044F0800401E044F480742868816921F0B2
:100EF00070018161296804204860002C05D0686A6F
:100F0000204368622846FFF78FFEBDE8F09F70B56A
:100F1000040003D094F8200010B104E0012070BD5B
:100F2000204600F081F82068016821F0020101608C
:100F300000F06CFB0546052604E000F067FB401B53
:100F40000A2811D8206840688007F6D42068016814
:100F500041F00101016000F059FB05460BE000F093
:100F600055FB401B0A2806D9606A40F400306062D5
:100F700084F82060D2E720684068C007EFD0207E68
:100F80000128206801683DD021F080010160607E69
:100F900001282068016838D021F040010160A07E5E
:100FA00001282068016833D021F020010160E07E33
:100FB0000128206801682ED041F010010160207FD7
:100FC00001282068016829D021F008010160607FB4
:100FD00001282068016824D021F004010160D4E9CF
:100FE00002010843D4E90412114308436168491E11
:100FF00008432168C86100206062012084F8200055
:10100000002070BD41F08001C0E741F04001C5E71C
:1010100041F02001CAE721F01001CFE741F00801BB
:10102000D4E741F00401D9E710B586B00446142195
:101030006846FFF7FFF817492068884227D116480D
:101040000021026842F000720260006800F0007047
:10105000059011481038026842F0080202600068EA
:10106000022200F0080005900320CDE90210CDE92E
:101070000002092004906946084800F0D9F90022CE
:101080001146142000F030FB142000F01FFB06B0C6
:1010900010BD00000064004040380240000C0240D7
:1010A00070470000024B034A0021FFF7BEBD00005D
:1010B0002200002054000020704770477047000055
:1010C00070B5044690F82000012804D0606A40F40E
:1010D0000020606218E0022084F820002068016887
:1010E00021F00101016000F091FA05460EE000BF19
:1010F00000F08CFA401B0A2808D9606A40F40030DE
:101100006062052084F82000012070BD20684068DE
:10111000C007EDD1606270BD70477047704770477F
:1011200070477047704700002DE9F84304464FF0C0
:101130000009CDF8009063484FF41651A56D006882
:10114000B0FBF1F72E6894F85C10082000FA01F16A
:1011500031420FD021680A6852070BD50A6822F085
:1011600004020A6094F85C108840A860606D40F04A
:101170000100606594F85C104FF0010808FA01F076
:10118000304208D021684969090604D5A860606D1D
:1011900040F00200606594F85C1004208840304202
:1011A00008D021680968890704D5A860606D40F0FF
:1011B0000400606594F85C1010208840304218D01C
:1011C00021680968090714D5A860206801684903E7
:1011D00004D50068000308D5A16C07E00168C905C3
:1011E00003D4016821F008010160216C09B1204697
:1011F000884794F85C1020208840304231D0216824
:101200000968C9062DD5A86094F83500052820681E
:10121000016806D0490347D5006800031DD4616CFE
:101220001CE021F0160101602068416921F0800175
:101230004161206C08B9A06C20B12068016821F0E0
:101240000801016094F85C103F208840A86084F891
:10125000349084F83580216D1FE0E16B09B12046A0
:101260008847606D00282BD0606DC00714D0052022
:1012700084F835002068016821F0010101600098C0
:10128000401C0090B84203D820680068C007F6D11F
:1012900084F8349084F83580E16C002910D001B0D6
:1012A0002046BDE8F04308470168C905D5D4016868
:1012B00021F01001016084F8349084F83580CCE787
:1012C000BDE8F883380000202DE9F041044600F025
:1012D0009DF906465CB1002584F83450022084F85C
:1012E00035002068016821F0010101600DE0012056
:1012F000BDE8F08100F08AF9801B052805D920207F
:101300006065032084F83500F2E720680068C007B4
:10131000F0D12268116820480140D4E90103184344
:10132000D4E903363343184363691843A369184368
:10133000E3691843236A18430843616A042903D107
:10134000D4E90B1319430843106020684069666AAA
:1013500020F0070130460E43012704280CD1A06A73
:101360000643E06A40B12046FFF760F920B1402013
:10137000606584F83570BAE7206846612046FFF75B
:1013800041F994F85C203F2191408160656584F8C3
:1013900035700020ACE700003F8010F02DE9F041EF
:1013A0000446866D90F83400002501280DD00120F8
:1013B00084F8340094F835700020012F07D084F8A9
:1013C000340002252846BDE8F0810220FBE7022711
:1013D00084F8357060652046FFF752F994F85C1088
:1013E0003F208840B0602068016841F0160101602C
:1013F000206C20B12068016841F00801016020687C
:10140000016841F001010160DCE7000070B50446AD
:1014100000F0FCF80546601C02D004480078044443
:1014200000F0F4F8401BA042FAD370BD2C0000205D
:101430002DE9F84F00224FF0010803254FF00F0E61
:101440000B6808FA02F42340A3426ED14E68012EC5
:1014500005D0022E03D0112E01D0122E12D1866893
:101460004FEA420C05FA0CF7BE43CF6807FA0CF7B7
:10147000374387604668A6430C79C4F30014944050
:1014800034434460C668570005FA07FC8C6826EAB6
:101490000C06BC403443C4604C68022C01D0122CB2
:1014A00013D1D40800EB8404A346D4F82090540749
:1014B0004FEAD46A0EFA0AF629EA06090E6906FA14
:1014C0000AF646EA0906CBF8206006680C7926EA97
:1014D0000C0604F00304BC40344304604C68E40090
:1014E00065D5364C266846F480462660246822F08E
:1014F000030604F480440094314C3444A446D4F8E8
:1015000008489607370F0EFA07F6B4432D4EB0423F
:1015100001D1002624E02C4EB04201D101261FE06B
:101520002A4EB04202D102261AE040E0284EB042D4
:1015300001D1032614E0274EB04201D104260FE06A
:10154000254EB04201D105260AE0244EB04201D119
:10155000062605E0224EB04201D1072600E008260B
:10156000BE402643CCF808681E4E34684F689C4342
:10157000FF0300D51C4334601A4C241D26684F68B5
:101580009E43BF0300D51E432660164E08363468BE
:101590004F689C43FF0200D51C433460114E0C364B
:1015A00034684F689C43BF0200D51C433460521C12
:1015B000102AFFF445AFBDE8F88F00004438024020
:1015C00000300140000002400004024000080240D8
:1015D000000C0240001002400014024000180240BB
:1015E000001C0240003C01400069084000D001207E
:1015F0007047426931EA020200D1090481617047F3
:101600000AB1816170470904FBE700000148806866
:10161000704700002C0000200248816802781144C5
:10162000816070472C0000200B4810B5016841F420
:1016300000710160016841F480610160016841F45A
:1016400080710160032000F06FF8002000F006F8C0
:1016500000F024F8002010BD003C024070B50D4D94
:1016600004464FF47A712878B1FBF0F00A49096812
:10167000B1FBF0F000F0E2FA48B9102C07D20022DA
:101680002146501E00F030F800206C6070BD012033
:1016900070BD00002C000020380000200A4808B56A
:1016A000016841F480410160006800F480400090CE
:1016B0000548001F016841F080510160006800F09A
:1016C0008050009008BD000044380240002809DB2B
:1016D00000F01F02012191404009800000F1E0204C
:1016E000C0F8001170470000F0B40E4B1B680C46A8
:1016F000C3F30223C3F10705042D00D90425191DE6
:10170000072901D2002300E0DB1E012606FA05F1BD
:10171000491E214099409E40761E16403143F0BC40
:1017200000F072BE0CED00E0064900F00702086808
:101730004FF6FF03184040EA0220034A10430860B6
:10174000704700000CED00E00000FA052DE9F047BD
:101750000E46050065D0DFF81481D8F80000F7B216
:1017600000F00F00B04207D288F80070D8F80000EF
:1017700000F00F00B04254D128683D4C810712D5CB
:10178000400703D5206840F4E05020602878000727
:1017900003D5206840F4604020602068A96820F0EC
:1017A000F000084320602878C0072DD030496868D1
:1017B0000839012812D0022813D0032811D0096853
:1017C000890700292DDA216821F0030101432160F6
:1017D000FFF71CFF814641F2883A0EE00968890351
:1017E000EFE709688901ECE7FFF710FFA0EB0901BB
:1017F000514502D90320BDE8F0872068696800F0F0
:101800000C00B0EB810FEFD1D8F80010404601F08A
:101810000F01B14207D90770006800F00F00B04215
:1018200001D00120E7E72878400705D52068E9685E
:1018300020F4E050084320602878000706D520688F
:10184000296920F4604040EAC100206000F018F8E7
:101850002168084AC1F30311515CC8400649086079
:1018600006480068FFF7FAFE0020C4E7003C02408B
:1018700008380240622600083800002030000020AE
:10188000154810B5006810F00C02144813D0411030
:10189000042A0FD0082A0ED10F4C241F2268236877
:1018A00002F03F025B0207D52068C0F38810A0FB5E
:1018B000010106E0084610BD2168C1F38811A1FBB3
:1018C00000010023FEF77EFC2168C1F30141491CA1
:1018D0004900B0FBF1F010BD083802400024F400CC
:1018E0002DE9F84F04006ED02078DFF83C93C00754
:1018F000A9F104054AD009F104000168C1F381018E
:10190000012908D00068C0F3810002280AD1D9F863
:101910000000400206D52868800337D5606800289B
:10192000E1D033E06068B0F5803F10D0B0F5A02F73
:10193000286810D020F480302860286820F48020A7
:1019400028606068A8B1FFF761FE06460DE02868D0
:1019500040F48030F4E740F480202860F7E700BFCF
:10196000FFF754FE801B642873D828688003F7D5DE
:101970000CE0FFF74BFE064605E000BFFFF746FE12
:10198000801B6428F0D828688003F7D42078DFF81B
:101990009C8280074FF0000A3ED5A348001D0168D5
:1019A00011F00C0F08D00068C0F3810002280BD1A1
:1019B000D9F80000400207D42868800716D5E068EF
:1019C000012800D112E02BE1E068B8B10120C8F88D
:1019D0000000FFF71BFE064605E000BFFFF716FEFE
:1019E000801B0228C0D828688007F7D5286821699D
:1019F00020F0F80040EAC10028600DE0C8F800A01F
:101A0000FFF704FE064604E0FFF700FE801B0228F5
:101A10001FD828688007F7D42078000722D5824E87
:101A200083486169703671B101210160FFF7EEFDF5
:101A3000074604E0FFF7EAFDC01B022809D830681A
:101A40008007F7D50EE0C0F800A0FFF7DFFD0746DE
:101A500005E082E0FFF7DAFDC01B02287DD8306880
:101A60008007F7D42078400768D5DFF8BCB100279D
:101A70000BF13C0BDBF80000C0000BD4DBF80010CE
:101A800041F08051CBF80010DBF80000012700F096
:101A900080500090674E3068C00510D4306840F424
:101AA00080703060FFF7B2FD009005E0FFF7AEFDFB
:101AB0000099401A022850D83068C005F6D55A4E11
:101AC000A0686C3601280FD00528306810D020F0AF
:101AD00001003060306820F004003060A068B8B1C8
:101AE000FFF794FD00900FE0306840F00100F4E74C
:101AF00040F004003060F7E7FFF788FD0099411AD5
:101B000041F28830814266D830688007F4D50EE013
:101B1000FFF77CFD009007E0FFF778FD0099411A80
:101B200041F28830814256D830688007F4D42FB112
:101B3000DBF8001021F08051CBF80010A069C8B389
:101B40003949091D0968C1F3810102294AD00228D7
:101B5000504607D0C8F8600000E03CE0FFF756FDB3
:101B600004463BE04746C8F86000FFF74FFD0646D5
:101B700005E000BFFFF74AFD801B02282BD828682C
:101B80008001F7D4D4E907010843A16A2A4A490829
:101B900002EB0141626A41EA8211084394F82C1079
:101BA00040EA0161C9F8001001203866FFF72EFDF8
:101BB000044606E036E000BFFFF728FD001B0228C0
:101BC00009D828688001F7D52CE000BFFFF71EFD7B
:101BD000001B022802D90320BDE8F88F2868800185
:101BE000F4D41FE00128F7D0D9F80000E26900F42E
:101BF0008001914214D1226A00F03F0191420FD13D
:101C000047F6C071626A0140914209D1A26A00F4AC
:101C10004031914204D1E16A00F07060884201D005
:101C20000120D9E70020D7E70438024000004742EE
:101C3000800E4742007000400000FFFF10B5401EBC
:101C4000B0F1807F01D3012010BD4FF0E02460612E
:101C50000F21601700F0D8FB0020A0610720206151
:101C6000002010BD7047704770B590F83C20012AE5
:101C700032D0012480F83C40022280F83D200368E5
:101C80005A689D6822F070060A6832435A60134B06
:101C900002689A4214D0B2F1804F11D0104B9A4290
:101CA0000ED0104B9A420BD00F4B9A4208D00F4BDC
:101CB0009A4205D00E4B9A4202D00E4B9A4204D162
:101CC000496825F080031943916080F83D40002168
:101CD00080F83C10084670BD022070BD0000014035
:101CE0000004004000080040000C004000040140D7
:101CF000004001400018004010B5040003D094F8E3
:101D00003D0010B107E0012010BD002084F83C0028
:101D1000204600F00DF8022084F83D00211D2068C7
:101D200000F0D8FA012084F83D00002010BD00002A
:101D300008B50068B0F1804F12D10A48016841F03F
:101D4000010101600068002200F0010000901146CE
:101D50001C20FFF7C9FCBDE808401C20FFF7B6BCFB
:101D600008BD0000403802400168CA6842F0010224
:101D7000CA600068816801F00701062903D0016884
:101D800041F0010101600020704770B5044690F8F1
:101D90003C00012817D0012584F83C50022084F82B
:101DA0003D002068826822F0770222F47F42826040
:101DB0000868502830D00DDC20284DD005DC98B3C1
:101DC00010283BD148E0022070BD302844D0402884
:101DD00034D139E0602828D0702806D0B0F5805F73
:101DE0002CD0B0F5005F29D10AE0CB68D1E9012100
:101DF000206800F0D3FA2068816841F0770109E09B
:101E0000CB68D1E90121206800F0C8FA2068816818
:101E100041F48041816011E0CA684968206800F09F
:101E2000CFFA5021206807E016E0CA6849682068A8
:101E300000F0D7FA6021206800F0BAFA84F83D502B
:101E4000002084F83C0070BDCA684968206800F032
:101E5000B7FA40212068EFE7226801461046EBE719
:101E6000704770B50446006801694FF00005C9432A
:101E7000890715D4C168C943890711D4E91E0161D6
:101E800001202077206880698007204602D0FFF774
:101E9000E7FF04E000F098F8204600F096F8257778
:101EA00020680169C943490717D4C168C943490774
:101EB00013D46FF00401016102202077206880694B
:101EC00010F4407F204602D0FFF7CAFF04E000F084
:101ED0007BF8204600F079F8257720680169C9432E
:101EE000090716D4C168C943090712D46FF0080165
:101EF0000161042020772068C0698007204602D055
:101F0000FFF7AEFF04E000F05FF8204600F05DF858
:101F1000257720680169C943C90617D4C168C94338
:101F2000C90613D46FF010010161082020772068E2
:101F3000C06910F4407F204602D0FFF791FF04E013
:101F400000F042F8204600F040F82577206801694B
:101F5000C943C90708D1C168C943C90704D1891E4B
:101F60000161204600F032F820680169C943090682
:101F700009D4C168C943090605D46FF08001016125
:101F80002046FFF76FFE20680169C943490609D45E
:101F9000C168C943490605D46FF04001016120467C
:101FA00000F03CF820680169C94389060BD4C16878
:101FB000C943890607D46FF0200101612046BDE8BE
:101FC0007040FFF750BE70BD704770470F4910B5A5
:101FD0004A7801F11A00A2B189880170090A41709A
:101FE00001210171094B41710C3303F10E020849C3
:101FF0000848FEF725FDBDE8104002210648FFF71E
:10200000F8BA002101704170ECE7000000000020E8
:102010003C00002018010020000002407047FEE74D
:102020007FB5002120480091019102911D4A039142
:10203000026001244FF440320461C0E901210476BA
:1020400080F82010194AC0E90A210325C561C16042
:1020500080F830404461FEF7D2FB08B1FEF725FB63
:10206000022607200096CDE9014069460E48FEF79A
:102070001DFB08B1FEF719FBCDE9005669460A4879
:10208000FEF714FB08B1FEF710FB0420CDE90005B4
:1020900069460548FEF70AFB002801D0FEF705FB5C
:1020A0007FBD000000200140700000200100000FF3
:1020B0000F4810B50D4901600721416000214FF420
:1020C00080228160C0E903124FF4A00242610176D0
:1020D00041768176C17601774177FEF718FF0028B7
:1020E00003D0BDE81040FEF7E0BA10BD0064004028
:1020F00018010020094808B5016841F48001016019
:102100000068002200F48000009011463820FFF79C
:10211000EBFABDE808403820FFF7D8BA3038024063
:1021200030B587B014216846FEF784F81E480024B5
:10213000016841F010010160016801F01001059192
:10214000016841F080010160016801F080010591A2
:10215000016841F001010160016801F00101059190
:10216000016841F0080101600068104D00F00800AE
:1021700005900022E2212846FFF742FA0420CDE92B
:1021800000040220029069460948FFF751F9E22055
:1021900000900120CDE90104694628460394FFF729
:1021A00047F907B030BD000030380240000002405F
:1021B0000010024010B586B0002417480094019426
:1021C0000294039404944FF08041059401604AF214
:1021D0001041C0E901146421C0E903148461FFF7D0
:1021E0008BFD08B1FEF761FA4FF48050009069460C
:1021F0000948FFF7CAFD08B1FEF757FA2020CDE9DC
:10220000040404A90448FFF72FFD002801D0FEF7BD
:102210004CFA06B010BD000040010020FEE77047F8
:1022200070477047FFF7F8B930B593B03021684672
:10223000FEF700F814210CA8FDF7FCFF1948002553
:10224000016841F080510160006800F080501190F9
:102250001548016841F4804101600068022400F4DF
:102260008040119001200090000401908001CDE990
:10227000064008AA0420A82182E813000B906846B3
:10228000FFF72EFB0CA90F2081E831004FF4A0507E
:102290000F90E002109005210CA8FFF757FA13B039
:1022A00030BD000040380240007000400548016821
:1022B00041F47001016003494FF00060803908600B
:1022C0007047000088ED00E00148FFF7CABD00003C
:1022D00040010020F0B50268254C264D264E274FC0
:1022E000274B4FF0804CA04209D0604507D0A84250
:1022F00005D0B04203D0B84201D0984204D122F0B8
:10230000700E4A6842EA0E02A0421BD0604519D006
:10231000A84217D0B04215D0B84213D0984211D07D
:10232000184DA8420ED0184DA8420BD0174DA84208
:1023300008D0174DA84205D0164DA84202D0164D20
:10234000A84203D122F44075CA682A434D6922F09D
:1023500080022A4302608A68C2620A688262A042DE
:1023600001D0984201D10969016301214161F0BDA9
:10237000000001400004004000080040000C004044
:102380000004014000400140004401400048014079
:1023900000180040001C00400020004010B5846878
:1023A00042EA032224F47F440A432243826010BDA0
:1023B000826822F070020A4342F007018160704790
:1023C00010B5036A046A24F001040462846924F0ED
:1023D000F00444EA021423F00A020A438461026210
:1023E00010BD10B5036A23F0100303628369046A09
:1023F00023F4704343EA023224F0A00343EA0111BC
:102400008261016210BDFEE70907090E002804DBA6
:1024100000F1E02080F80014704700F00F0000F198
:10242000E02080F8141D704702E008C8121F08C1A0
:10243000002AFAD170477047002001E001C1121F45
:10244000002AFBD17047000010B51F4C40F6D27037
:102450002288824205D86188814202D8A3888342BB
:1024600001D9012010BD501AFDF7EFFE00EE100A51
:102470009FED161B21F0004110EE100A53EC112BBA
:10248000FDF7F4FE01D2022010BD20884FF47A63DC
:10249000984205D86188994202D8A2889A4201D907
:1024A000032010BDB2F5487F0CD9084440F24161C9
:1024B000884205D90449012014390870042010BD50
:1024C000052010BD002010BD1400002000000000F9
:1024D00000409F40F8B5FFF7B7FF1F4C00251F4F86
:1024E000A07004F1140606280BD2DFE800F02503E3
:1024F00003030B23012280213846FFF781F8A580D2
:102500006570F8BD012220213846FFF779F8A580D3
:102510004FF4C97402E00A20FEF778FF3088718812
:102520000844A042F7D23846BDE8F84000222021F6
:10253000FFF766B8A580F8BD4FF4AF600090308813
:10254000718800230844400840F6D862642100F0F6
:1025500075F8A080F8BD00000000002000000240D7
:10256000FFF762F8FFF760FEFFF7DAFDFFF7C2FD45
:10257000FFF756FDFFF79CFDFFF71CFE03222A49DB
:102580002A48FEF7B3F92A48FFF7EEFBFEF718F8E2
:10259000FDF7F6FF244CDFF89C90DFF89C804FF4A9
:1025A0007A7A143C04214D464846FFF71DF86078BE
:1025B00060BB0026A680324640214046FFF720F847
:1025C000A660194EA9464FF448775546B088B842E0
:1025D00017D304214846FFF707F8012811D1FFF768
:1025E00015F82061A06804E0FFF710F82169401A8F
:1025F000A060A84208D204214846FEF7F5FF012852
:10260000F2D0A068A842E1D30120607000228021AE
:1026100045464046FEF7F4FF012240212846FEF7DA
:10262000EFFFFFF757FFBDE7140000207000002008
:1026300040010020001002400000024030B5044676
:102640000398641AC51A6C43511A94FBF1F11944AA
:1026500089B2814200D8084630BD00061016000637
:10266000101600000000000000000102030406072D
:102670000809000094260008000000203C0000002B
:1026800028240008D02600083C0000204405000053
:1026900038240008000000000000000000000000D6
:1026A000000000000000000000000000000000002A
:1026B000000000000000000000000000000000001A
:1026C0000100000010000000000000000024F400E1
:040000050800018965
:00000001FF
