:020000040800F2
:1000000070040020A10100085B1100086B100008BB
:1000100059110008AD0200083D130008000000005F
:10002000000000000000000000000000A91200080D
:10003000AF020008000000005D110008AB120008CC
:10004000BB010008BB010008BB010008BB010008A0
:10005000BB010008BB010008B1020008BB01000899
:10006000BB010008BB010008BB010008BB01000880
:10007000BB010008BB010008BB010008BB01000870
:10008000BB010008BB010008BB010008BB01000860
:10009000BB010008BB010008BB010008BB01000850
:1000A000BB010008BB010008BB010008BB01000840
:1000B000BB010008BB010008BB010008BB01000830
:1000C000BB010008BB010008BB010008BB01000820
:1000D000BB010008BB010008BB010008BB01000810
:1000E000BB010008BB010008BB010008BB01000800
:1000F000BB010008BB010008BB010008BB010008F0
:10010000BB010008BB010008BB010008BB010008DF
:10011000BB010008BB010008BB010008BB010008CF
:10012000BB010008BB010008BB010008BB010008BF
:10013000BB0100080000000000000000BB01000837
:10014000BB010008BB010008BB010008BB0100089F
:10015000BB010008BB010008BB010008BB0100088F
:10016000BB010008BB010008BB010008BB0100087F
:10017000BB010008BB0100080000000000000000F7
:10018000BB010008BB010008DFF810D000F07CF8CC
:10019000004800477D130008AFF300807004002082
:1001A0000648804706480047FEE7FEE7FEE7FEE711
:1001B000FEE7FEE7FEE7FEE7FEE7FEE721130008A5
:1001C000890100082DE9F05F0546002092469B4614
:1001D00088460646814640241BE02846414647465D
:1001E000224600F041F853465A46C01A914110D3B6
:1001F00011461846224600F028F82D1A67EB010830
:100200004F4622460120002100F01FF817EB00099D
:100210004E41201EA4F10104DFDC484631462A4647
:100220004346BDE8F09FD2B201E000F8012B491E21
:10023000FBD270470022F6E710B513460A46044683
:100240001946FFF7F0FF204610BD202A04DB203AB4
:1002500000FA02F1002070479140C2F1200320FA19
:1002600003F3194390407047202A04DB203A21FA17
:1002700002F00021704721FA02F3D040C2F12002BF
:100280009140084319467047064C074D06E0E06868
:1002900040F0010394E8070098471034AC42F6D3CD
:1002A000FFF776FF0414000824140008FEE77047E7
:1002B000012000F003B8704770470000044910B5F2
:1002C0000A68024202D00860FFF7F6FF10BD000086
:1002D000143C01402DE9F84F00224FF0010803259E
:1002E0004FF00F0E0B6808FA02F42340A3426ED1C0
:1002F0004E68012E05D0022E03D0112E01D0122EF1
:1003000012D186684FEA420C05FA0CF7BE43CF685B
:1003100007FA0CF7374387604668A6430C79C4F3A5
:100320000014944034434460C668570005FA07FC43
:100330008C6826EA0C06BC403443C4604C68022C2E
:1003400001D0122C13D1D40800EB8404A346D4F8B6
:10035000209054074FEAD46A0EFA0AF629EA0609F1
:100360000E6906FA0AF646EA0906CBF82060066826
:100370000C7926EA0C0604F00304BC403443046004
:100380004C68E40065D5364C266846F48046266005
:10039000246822F0030604F480440094314C344471
:1003A000A446D4F808489607370F0EFA07F6B44368
:1003B0002D4EB04201D1002624E02C4EB04201D196
:1003C00001261FE02A4EB04202D102261AE040E088
:1003D000284EB04201D1032614E0274EB04201D18D
:1003E00004260FE0254EB04201D105260AE0244E36
:1003F000B04201D1062605E0224EB04201D10726C7
:1004000000E00826BE402643CCF808681E4E34683B
:100410004F689C43FF0300D51C4334601A4C241DD5
:1004200026684F689E43BF0300D51E432660164EC4
:10043000083634684F689C43FF0200D51C43346083
:10044000114E0C3634684F689C43BF0200D51C43E4
:100450003460521C102AFFF445AFBDE8F88F00004D
:1004600044380240003001400000024000040240D5
:1004700000080240000C024000100240001402403C
:1004800000180240001C0240003C01400AB181619A
:1004900070470904FBE700000148806870470000CE
:1004A000040000200248816802781144816070478E
:1004B000040000200B4810B5016841F40071016090
:1004C000016841F480610160016841F4807101605C
:1004D000032000F06FF8002000F006F800F024F888
:1004E000002010BD003C024070B50D4D04464FF495
:1004F0007A712878B1FBF0F00A490968B1FBF0F095
:1005000000F09FFD48B9102C07D200222146501E52
:1005100000F030F800206C6070BD012070BD00005C
:1005200004000020100000200A4808B5016841F4CA
:1005300080410160006800F4804000900548001F81
:10054000016841F080510160006800F08050009027
:1005500008BD000044380240002809DB00F01F02FB
:10056000012191404009800000F1E020C0F8001115
:1005700070470000F0B40E4B1B680C46C3F3022317
:10058000C3F10705042D00D90425191D072901D23F
:10059000002300E0DB1E012606FA05F1491E21407A
:1005A00099409E40761E16403143F0BC00F0C7BE15
:1005B0000CED00E0064900F0070208684FF6FF0363
:1005C000184040EA0220034A1043086070470000C8
:1005D0000CED00E00000FA052DE9F0470E4605009D
:1005E00065D0DFF81481D8F80000F7B200F00F00F2
:1005F000B04207D288F80070D8F8000000F00F0071
:10060000B04254D128683D4C810712D5400703D52C
:10061000206840F4E05020602878000703D5206867
:1006200040F4604020602068A96820F0F000084392
:1006300020602878C0072DD0304968680839012823
:1006400012D0022813D0032811D009688907002985
:100650002DDA216821F0030101432160FFF71CFF1F
:10066000814641F2883A0EE009688903EFE709689C
:100670008901ECE7FFF710FFA0EB0901514502D912
:100680000320BDE8F0872068696800F00C00B0EB3B
:10069000810FEFD1D8F80010404601F00F01B142B0
:1006A00007D90770006800F00F00B04201D00120A8
:1006B000E7E72878400705D52068E96820F4E0508E
:1006C000084320602878000706D52068296920F4AF
:1006D000604040EAC100206000F018F82168084A34
:1006E000C1F30311515CC840064908600648006820
:1006F000FFF7FAFE0020C4E7003C02400838024041
:10070000F41300081000002008000020154810B560
:10071000006810F00C02144813D01449042A0FD0BA
:10072000082A0ED10F4C241F2268236802F03F02D2
:100730005B0207D52068C0F38810A0FB010106E02A
:10074000084610BD2168C1F38811A1FB00010023F8
:10075000FFF738FD2168C1F30141491C4900B0FB96
:10076000F1F010BD083802400024F40040787D010B
:100770002DE9F84F04006ED02078DFF83C93C007D5
:10078000A9F104054AD009F104000168C1F381010F
:10079000012908D00068C0F3810002280AD1D9F8E5
:1007A0000000400206D52868800337D5606800281D
:1007B000E1D033E06068B0F5803F10D0B0F5A02FF5
:1007C000286810D020F480302860286820F4802029
:1007D00028606068A8B1FFF75FFE06460DE0286854
:1007E00040F48030F4E740F480202860F7E700BF51
:1007F000FFF752FE801B642873D828688003F7D562
:100800000CE0FFF749FE064605E000BFFFF744FE97
:10081000801B6428F0D828688003F7D42078DFF89C
:100820009C8280074FF0000A3ED5A348001D016856
:1008300011F00C0F08D00068C0F3810002280BD122
:10084000D9F80000400207D42868800716D5E06870
:10085000012800D112E02BE1E068B8B10120C8F80E
:100860000000FFF719FE064605E000BFFFF714FE83
:10087000801B0228C0D828688007F7D5286821691E
:1008800020F0F80040EAC10028600DE0C8F800A0A0
:10089000FFF702FE064604E0FFF7FEFD801B02287C
:1008A0001FD828688007F7D42078000722D5824E09
:1008B00083486169703671B101210160FFF7ECFD79
:1008C000074604E0FFF7E8FDC01B022809D830689E
:1008D0008007F7D50EE0C0F800A0FFF7DDFD074662
:1008E00005E082E0FFF7D8FDC01B02287DD8306804
:1008F0008007F7D42078400768D5DFF8BCB100271F
:100900000BF13C0BDBF80000C0000BD4DBF800104F
:1009100041F08051CBF80010DBF80000012700F017
:1009200080500090674E3068C00510D4306840F4A5
:1009300080703060FFF7B0FD009005E0FFF7ACFD80
:100940000099401A022850D83068C005F6D55A4E92
:10095000A0686C3601280FD00528306810D020F030
:1009600001003060306820F004003060A068B8B149
:10097000FFF792FD00900FE0306840F00100F4E7CF
:1009800040F004003060F7E7FFF786FD0099411A58
:1009900041F28830814266D830688007F4D50EE095
:1009A000FFF77AFD009007E0FFF776FD0099411A06
:1009B00041F28830814256D830688007F4D42FB194
:1009C000DBF8001021F08051CBF80010A069C8B30B
:1009D0003949091D0968C1F3810102294AD0022859
:1009E000504607D0C8F8600000E03CE0FFF754FD37
:1009F00004463BE04746C8F86000FFF74DFD064659
:100A000005E000BFFFF748FD801B02282BD82868AF
:100A10008001F7D4D4E907010843A16A2A4A4908AA
:100A200002EB0141626A41EA8211084394F82C10FA
:100A300040EA0161C9F8001001203866FFF72CFD7B
:100A4000044606E036E000BFFFF726FD001B022843
:100A500009D828688001F7D52CE000BFFFF71CFDFE
:100A6000001B022802D90320BDE8F88F2868800106
:100A7000F4D41FE00128F7D0D9F80000E26900F4AF
:100A80008001914214D1226A00F03F0191420FD1BE
:100A900047F6C071626A0140914209D1A26A00F42E
:100AA0004031914204D1E16A00F07060884201D087
:100AB0000120D9E70020D7E7043802400000474270
:100AC000800E4742007000400000FFFF70B5040038
:100AD00005D00025A56294F8510010B106E0012070
:100AE00070BD84F85050204600F030F8022084F8A1
:100AF00051002068016821F040010160D4E9010142
:100B00000843D4E903121143084361690843218B68
:100B100001F400710843E1690843216A0843A16AAE
:100B2000084321680860A069042101EA1040616A55
:100B30000843216848602068C16921F40061C161EF
:100B40006565012084F85100002070BD10B586B0A5
:100B5000044614216846FFF76DFB1349206888425C
:100B600020D112480021026842F4805202600068DD
:100B700000F4805005900D481438026842F00102DC
:100B80000260006800F001000590E0200090022063
:100B9000CDE9010103200390052004906946044833
:100BA000FFF798FB06B010BD00300140443802400A
:100BB000000002402DE9F84F0446406800259846A1
:100BC00016460F464FF0040BB0F5827F01D1A068A6
:100BD00088B194F85000012818D0012084F8500002
:100BE000FFF75AFC814694F851004FF0000A0128A3
:100BF0000ED002257DE084F851B013460A46204607
:100C0000CDF8008000F02CF9BDE8F88F0220FBE75A
:100C1000002F6DD0002E6BD084F851B0C4F854A0D2
:100C2000A763A687E687C4F830A0A4F834A0A4F888
:100C300036A0C4F840A0C4F844A0A068B0F5004FA6
:100C400004D12068016821F48041016020680168B6
:100C5000490603D4016841F040010160E068D8B161
:100C600039E020688168C90709D0007BA16B087052
:100C7000A06B401CA063E08F401EE0870CE0FFF7F4
:100C80000BFCA0EB0901414503D3B8F1FF3F03D0B2
:100C900036E0B8F1000F33D0E08F0028E1D11DE03D
:100CA00020688168C90709D0C068A16B0880A06B63
:100CB000801CA063E08F401EE0870CE0FFF7ECFB98
:100CC000A0EB0901414503D3B8F1FF3F03D017E082
:100CD000B8F1000F14D0E08F0028E1D14A46414618
:100CE000204600F03CFA08B120206065606D00B13C
:100CF0000125012084F8510084F850A0284683E79C
:100D00000325F6E72DE9F84F044690F85000002738
:100D10001D461646894601280DD04FF0010B84F878
:100D200050B0FFF7B9FB804694F85100BA4601284D
:100D300004D002278EE00220BDE8F88FB9F1000F41
:100D40007DD0002E7BD0032084F85100C4F854A03D
:100D5000C4F83090A686E686C4F838A0A4F83CA073
:100D6000A4F83EA0C4F844A0C4F840A0A068B0F520
:100D7000004F04D12068016841F48041016020687F
:100D80000168490603D4016841F040010160E06850
:100D9000B0F5006F606803D030B3012E24D040E07E
:100DA00008B1012E1CD1206B21680088C86006E0C4
:100DB00020688168890709D5216B0988C160206B8B
:100DC000801C2063E08E401EE08609E0FFF764FB94
:100DD000A0EB0800A84202D3681C01D031E07DB32B
:100DE000E08E0028E4D11FE0206B216800780873B2
:100DF00006E020688168890709D5216B09780173AD
:100E0000206B401C2063E08E401EE08609E0FFF767
:100E100043FBA0EB0800A84202D3681C01D010E0FD
:100E200075B1E08E0028E4D142462946204600F004
:100E3000C5F908B120206065A06820B107E008E08E
:100E4000FFE7032706E02068C16880680090606DB6
:100E500000B1012784F851B084F850A038466BE700
:100E60002DE9F84F044690F8500000270A9E1D46D1
:100E700092468B464FF0010901280ED0012084F8DC
:100E80005000FFF709FB804694F851006168012883
:100E90000CD0B1F5827F07D102E00220BDE8F88FC7
:100EA000A16809B9042801D00227C2E0BBF1000FF4
:100EB00027D0BAF1000F24D01DB394F851000428B4
:100EC00002D0052084F8510000206065C4F838A0E5
:100ED000E587A587C4F830B0E586A5862064606400
:100EE00020680168490603D4016841F040010160AF
:100EF000E068B0F5006F606805D0E8B3012D46D01A
:100F00007FE0012795E008B1012D39D1206B2168E0
:100F10000088C860206B801C2063E08E401EE08645
:100F20002EE02068816889070FD5E18E69B1B9F19B
:100F3000010F0AD1216B0988C160206B801C2063DE
:100F4000E08E401EE0864FF0000920688168C907E6
:100F50000CD0E18F51B1C068A16B0880A06B801CE0
:100F6000A063E08F401EE0874FF00109FFF794FA7D
:100F7000A0EB0800B04200E009E001D3701C50D1A2
:100F8000E08E0028CDD1E08F0028CAD13FE0206B51
:100F9000216800780873206B401C2063E08E401E9F
:100FA000E0862EE02068816889070FD5E18E69B15F
:100FB000B9F1010F0AD1216B09780173206B401C34
:100FC0002063E08E401EE0864FF0000920688168B3
:100FD000C9070CD0E18F51B1C068A16B0870A06B3C
:100FE000401CA063E08F401EE0874FF00109FFF72F
:100FF00053FAA0EB0800B04202D3701C01D010E0FD
:101000007EB1E08E0028CDD1E08F0028CAD14246C3
:101010003146204600F0D2F828B101272020606533
:1010200007E0032705E0A06818B92068C168806858
:101030000090012084F85100002084F850003846C8
:101040002CE710B5401EB0F1807F01D3012010BD08
:101050004FF0E02460610F21601700F070F900206C
:10106000A06107202061002010BDFEE7F0B587B029
:1010700014216846FFF7DEF821480024016841F09A
:1010800010010160016801F010010591016841F053
:101090000101016000681B4E00F00100059022462E
:1010A00008213046FFF7F2F9174F00220221384697
:1010B000FFF7ECF9082000900125CDE901546946BD
:1010C00030460394FFF706F902200090CDE9015461
:1010D000694638460394FFF7FDF80C480095CDE9C2
:1010E000010469463046FFF7F5F800221146062054
:1010F000FFF740FA0620FFF72FFA07B0F0BD000017
:101100003038024000100240000002400000111080
:10111000104810B50E4901604FF482714160002102
:101120008160C1604FF400720161C0E905121822AC
:10113000C0E90721416281620A21C162FFF7C6FC52
:10114000002803D0BDE81040FFF7B5B810BD00007F
:101150000030014014000020FEE770477047F8B5EA
:10116000044640684FF48273984221D1A0684FF43E
:101170008065B0F5004F01D0A8420AD1206806680A
:1011800026F0400606606068984211D1A068A84227
:101190000ED000920B4600228021204600F03AF843
:1011A000002804D0606D40F0200060650320F8BD89
:1011B00000920B4600220121EFE7000038B50446FB
:1011C0001248134B0068B0FBF3F04FF47A735843A6
:1011D00000906068B0F5827F0DD10B46009200222E
:1011E0008021204600F016F870B1606D40F02000BC
:1011F0006065032038BD009830B1401E0090206823
:101200008068C0430006F6D5002038BD10000020DD
:1012100000366E012DE9F0411D4617460E46044684
:10122000DDF8188008E0681C06D0FFF735F9A0EB60
:101230000800A8420BD255B12068806836EA000049
:1012400030D00020B842EED10020BDE8F081206807
:10125000416821F0E00141606068B0F5827F0BD108
:10126000A068B0F5004F02D0B0F5806F04D12068BF
:10127000016821F040010160A06AB0F5005F09D16A
:101280002068016821F4005101602068016841F480
:1012900000510160012084F85100002084F85000C2
:1012A0000320D2E70120CDE77047FFF7FBB800002D
:1012B00010B592B030216846FEF7BCFF14210CA88F
:1012C000FEF7B8FF14480024016841F08051016026
:1012D000006800F0805011901048016841F480418E
:1012E00001600068069400F4804011900220009094
:1012F00001200390102004906846FFF739FA0F2070
:10130000CDE90C040E940F9400210CA81094FFF763
:1013100063F912B010BD0000403802400070004078
:101320000548016841F47001016003494FF0006015
:10133000803908607047000088ED00E0FEE709078B
:10134000090E002804DB00F1E02080F8001470474B
:1013500000F00F0000F1E02080F8141D704702E05B
:1013600008C8121F08C1002AFAD170477047002030
:1013700001E001C1121F002AFBD17047FFF79AF864
:10138000FFF796FFFFF772FEFFF7C2FE164D002231
:1013900008212846FFF77AF8144C112032232070D8
:1013A000022221461248FFF7ADFC012208212846FF
:1013B000FFF76CF8002208212846FFF767F8A02005
:1013C00020703223012221460948FFF79BFC32237B
:1013D0000122A11C0648FFF7EDFB01220821284647
:1013E000FFF754F8FEE70000001002400000002064
:1013F00014000020000000000000000001020304AF
:10140000060708092414000800000020140000004A
:101410005E13000838140008140000205C0400006B
:101420006E13000800000000010000001000000022
:08143000000000000024F4009C
:040000050800018965
:00000001FF
