:020000040800F2
:10000000D0040020A1010008632000080D1500089D
:1000100061200008AD020008F9200008000000007F
:100020000000000000000000000000006720000841
:100030006103000800000000652000086920000836
:10004000BB010008BB010008BB010008BB010008A0
:10005000BB010008BB010008BB010008BB01000890
:10006000BB010008BB010008BB010008B102000889
:10007000BB010008BB010008BB010008BB01000870
:10008000BB010008BB010008BB010008BB01000860
:10009000BB010008BB010008BB010008BB01000850
:1000A000BB010008BB010008BB010008BB01000840
:1000B000BB010008BB010008BB0100081D150008BA
:1000C00011150008BB010008BB010008BB010008B6
:1000D000BB010008BB010008BB010008BB01000810
:1000E000BB010008BB010008BB010008BB01000800
:1000F000BB010008BB010008BB010008BB010008F0
:10010000BB010008BB010008BB010008BB010008DF
:10011000BB010008BB010008BB010008BB010008CF
:10012000BB010008BB010008BB010008BB010008BF
:10013000BB010008BB010008BB010008BB010008AF
:10014000BB010008BB010008BB010008BB0100089F
:10015000BB010008BB010008BB010008BB0100088F
:10016000BB010008BB010008BB010008BB0100087F
:10017000BB010008BB010008BB0100080000000033
:10018000BB010008BB010008DFF810D000F07CF8CC
:100190000048004739210008AFF30080D004002058
:1001A0000648804706480047FEE7FEE7FEE7FEE711
:1001B000FEE7FEE7FEE7FEE7FEE7FEE7DD200008DC
:1001C000890100082DE9F05F0546002092469B4614
:1001D00088460646814640241BE02846414647465D
:1001E000224600F041F853465A46C01A914110D3B6
:1001F00011461846224600F028F82D1A67EB010830
:100200004F4622460120002100F01FF817EB00099D
:100210004E41201EA4F10104DFDC484631462A4647
:100220004346BDE8F09FD2B201E000F8012B491E21
:10023000FBD270470022F6E710B513460A46044683
:100240001946FFF7F0FF204610BD202A04DB203AB4
:1002500000FA02F1002070479140C2F1200320FA19
:1002600003F3194390407047202A04DB203A21FA17
:1002700002F00021704721FA02F3D040C2F12002BF
:100280009140084319467047064C074D06E0E06868
:1002900040F0010394E8070098471034AC42F6D3CD
:1002A000FFF776FF80210008A0210008FEE700008C
:1002B000014800F06FB800006C00002001681823AE
:1002C000CAB2103AB2FBF3F2054B6FF30901032AED
:1002D0009B5CC36500D9091D816508467047000015
:1002E0006021000810B5014600208B698A6A4FF032
:1002F000C07453B1B3F5005F15D072B1012A0CD0B0
:10030000022A0AD0032A09D104E01AB1012A06D030
:10031000022A03D1C96AC90100D5012010BDC96AEA
:10032000A142FAD010BD002AF7D0012AF2D0022A49
:10033000F3D0032AF3D010BD30B50468256825F446
:1003400080252560046863608368402B036803D0C0
:1003500099600068C26030BD9A600068C16030BDBD
:100360007047704790F83510022903D0802141650D
:1003700001207047052180F835100068016821F0E0
:100380000101016000207047406D704790F8350012
:10039000704700002DE9F84304464FF00009CDF8FE
:1003A000009063484FF41651A56D0068B0FBF1F75B
:1003B0002E6894F85C10082000FA01F131420FD049
:1003C00021680A6852070BD50A6822F004020A6005
:1003D00094F85C108840A860606D40F00100606592
:1003E00094F85C104FF0010808FA01F0304208D090
:1003F00021684969090604D5A860606D40F00200D3
:10040000606594F85C1004208840304208D0216870
:100410000968890704D5A860606D40F00400606534
:1004200094F85C1010208840304218D02168096888
:10043000090714D5A86020680168490304D500683D
:10044000000308D5A16C07E00168C90503D4016861
:1004500021F008010160216C09B12046884794F819
:100460005C1020208840304231D021680968C906DC
:100470002DD5A86094F8350005282068016806D0BD
:10048000490347D5006800031DD4616C1CE021F0CE
:10049000160101602068416921F080014161206CF2
:1004A00008B9A06C20B12068016821F00801016042
:1004B00094F85C103F208840A86084F8349084F859
:1004C0003580216D1FE0E16B09B120468847606DE2
:1004D00000282BD0606DC00714D0052084F83500AB
:1004E0002068016821F0010101600098401C009023
:1004F000B84203D820680068C007F6D184F8349069
:1005000084F83580E16C002910D001B02046BDE8A8
:10051000F04308470168C905D5D4016821F01001EE
:10052000016084F8349084F83580CCE7BDE8F88326
:10053000140000202DE9F041044600F07FF9064642
:100540005CB1002584F83450022084F8350020681E
:10055000016821F0010101600DE00120BDE8F0819A
:1005600000F06CF9801B052805D920206065032068
:1005700084F83500F2E720680068C007F0D12268EF
:10058000116820480140D4E901031843D4E9033637
:100590003343184363691843A3691843E369184355
:1005A000236A18430843616A042903D1D4E90B1371
:1005B00019430843106020684069666A20F007010B
:1005C00030460E43012704280CD1A06A0643E06A96
:1005D00040B12046FFF786FE20B14020606584F8D8
:1005E0003570BAE7206846612046FFF767FE94F849
:1005F0005C203F2191408160656584F83570002062
:10060000ACE700003F8010F02DE9F0410446866D14
:1006100090F83400002501280DD0012084F8340022
:1006200094F835700020012F07D084F8340002259B
:100630002846BDE8F0810220FBE7022784F83570E8
:1006400060652046FFF778FE94F85C103F208840F4
:10065000B0602068016841F016010160206C20B193
:100660002068016841F0080101602068016841F0DC
:1006700001010160DCE700002DE9F84F00224FF096
:10068000010803254FF00F0E0B6808FA02F423400F
:10069000A3426ED14E68012E05D0022E03D0112E3A
:1006A00001D0122E12D186684FEA420C05FA0CF7DF
:1006B000BE43CF6807FA0CF7374387604668A64306
:1006C0000C79C4F30014944034434460C668570066
:1006D00005FA07FC8C6826EA0C06BC403443C4606B
:1006E0004C68022C01D0122C13D1D40800EB8404E6
:1006F000A346D4F8209054074FEAD46A0EFA0AF6BB
:1007000029EA06090E6906FA0AF646EA0906CBF84E
:10071000206006680C7926EA0C0604F00304BC404D
:10072000344304604C68E40065D5364C266846F4D2
:1007300080462660246822F0030604F48044009476
:10074000314C3444A446D4F808489607370F0EFAC3
:1007500007F6B4432D4EB04201D1002624E02C4EC2
:10076000B04201D101261FE02A4EB04202D102263A
:100770001AE040E0284EB04201D1032614E0274E93
:10078000B04201D104260FE0254EB04201D105262A
:100790000AE0244EB04201D1062605E0224EB042C6
:1007A00001D1072600E00826BE402643CCF80868A1
:1007B0001E4E34684F689C43FF0300D51C433460D1
:1007C0001A4C241D26684F689E43BF0300D51E4364
:1007D0002660164E083634684F689C43FF0200D5E9
:1007E0001C433460114E0C3634684F689C43BF0282
:1007F00000D51C433460521C102AFFF445AFBDE8FD
:10080000F88F0000443802400030014000000240F0
:100810000004024000080240000C024000100240A8
:100820000014024000180240001C0240003C01403D
:100830000AB1816170470904FBE700000148806844
:100840007047000008000020704770472DE9F04114
:10085000016804464A694E6890F83E000025D74377
:10086000FA0506D4F243D20503D46FF48072012551
:100870004A61B90508D4F143C90505D422686FF46B
:10088000007145F002055161790525D4F143C90590
:1008900022D4638D94F83D10226B202808D13BB9F7
:1008A000212910D029290ED0282901D1212A0AD0A6
:1008B00022686FF48061516145F00405102806D06C
:1008C000402804D008E0204601F074FA04E02068D3
:1008D000016841F400710160380508D4F043C00597
:1008E00005D421686FF4006045F008054861002DCB
:1008F00007D0206C284320642046BDE8F04100F07A
:1009000017BFBDE8F0812DE9F0410268002451686D
:10091000C76A90F83E5090F83D60102D1CD0402DD5
:100920001AD0036C002B7ED053694FF02805DB43AF
:100930009F0779D4CF43BF0576D4016C01B1946988
:1009400090F83D3000219D430B466ED0C91E516189
:1009500080F83C30BDE8F081946953694FF42A0C6B
:10096000DB435FEAC37E4FF02A4604D06745F1D0EF
:10097000B742EFD010E0CF43BF050DD4C16A614547
:1009800001D1012103E0C16AB14201D10821C16254
:10099000BDE8F04101F078B91E0716D4CE43B60584
:1009A00013D4416CC9B21161416B11B9826B002A39
:1009B000D0D0C96B19B9816BC96B0029CAD0006846
:1009C000416841F400614160C4E79E0706D4CE430C
:1009D000B60503D4BDE8F04101F0CAB8E44352685B
:1009E00064074FEA02521BD4002AB3DB1A0608D46C
:1009F000CA43520505D45A0705D5BDE8F04101F0B8
:100A00005BB85A07A6D4C9438905A3D4102D03D0D7
:100A1000BDE8F04101F07EB9BDE8F04101F012B847
:100A2000002A97DB02E015E029E015E05A0608D419
:100A3000CA43520505D45A0705D5BDE8F04100F078
:100A40008DBF5A0786D4C943890583D4BDE8F041D8
:100A500000F01ABF946967E7556825F48065556012
:100A6000E243540700D50121120601D5828900E036
:100A7000028B80F83C3092B2FFF7E7FE6AE7DC06B3
:100A800006D4CC43A40503D4BDE8F04101F0D4B9A9
:100A9000212E27D0292E25D05C0655D4CC436405C1
:100AA00052D45B0752D590F83D10438D002B8BD06C
:100AB0001269436A1A70426A521C4262428D521E87
:100AC0004285428D002AD9D12A29D7D101684A68A6
:100AD00022F480624A602221016380F83D5000F0D8
:100AE00071F937E71C0623D4CC43640520D45B0797
:100AF00020D590F83D10438D002BBFD0436A1B7862
:100B00001361426A521C4262428D521E4285428DDE
:100B1000002AB3D12929B1D101684A6822F4806240
:100B20004A602121016380F83D5000F04CF911E743
:100B30005B07A3D4C9438905A0D4418D00299DD06A
:100B4000416A097811610AE05B0797D4C9438905B6
:100B500094D4418D002991D01169426A1170416A83
:100B6000491C4162418D491E4185F3E670470000F2
:100B700070B5040025D094F83D00002520B984F814
:100B80003C50204600F0BEF8242084F83D00206848
:100B9000016821F0010101602068016841F4004111
:100BA00001602068016821F40041016000F0AAFAA8
:100BB0004D4A6168914201D84C4900E04C49884255
:100BC00001D2012070BD4B492368B0FBF1F15E6892
:100BD00026F03F060E435E606368934206D94FF4E9
:100BE000967359434FF47A73B1FBF3F12368491CB0
:100BF0001E6A26F03F06314319626168914210D89F
:100C00004900401EB0FBF1F2521CC2F30B02042A51
:100C100001D2042022E0B0FBF1F0401CC0F30B0035
:100C20001CE0A268F2B301EBC10303EB0116431E03
:100C3000B3FBF6F35B1C43F480431B0549D092B32E
:100C400001EBC10202EB0111401EB0FBF1F0401CB0
:100C5000C0F30B0040F4804040F400402168CA69B2
:100C60004CF6FF739A431043C861D4E9071001435F
:100C70002068026822F0C00211430160D4E9030138
:100C800001432068826848F2FF339A431143816030
:100C9000D4E9050108432168CA6822F0FF02104325
:100CA000C86001E00EE016E02068016841F0010133
:100CB00001602564202084F83D00256384F83E50BF
:100CC000002070BD01EB4106431EB3FBF6F35B1C35
:100CD000B3E70120C2E701EB4101401EB0FBF1F098
:100CE000401CC0F30B00B7E7A086010080841E0003
:100CF00000093D0040420F00704770477047704741
:100D00007047000070B586B0064614216846FFF7AC
:100D100091FA27493068884248D126480025016861
:100D200041F0020101600068694600F00200059090
:100D3000C020009012200190012002900320039017
:100D4000042004901C48FFF797FC1A4810300168F3
:100D500041F4001101600068194C00F40010059086
:100D6000164820604005C4E90105C013C4E90350DA
:100D700080106561C4E90650256220466562FFF770
:100D8000D9FB08B1FFF7EDFAB463002211461F202A
:100D9000A66300F0EBF81F2000F0DAF800221146FD
:100DA000202000F0E3F8202000F0D2F806B070BD5B
:100DB00000540040303802400004024010600240FD
:100DC0006C0000207047704770B5044690F83D00F5
:100DD00020285BD161B15AB194F83C00012855D06C
:100DE000012084F83C0020680368DB0702D005E09E
:100DF000012070BD036843F00103036020680368AD
:100E000023F400630360222084F83D00202684F848
:100E10003E600025256461626285608D20851C48E6
:100E2000E062A16B1B48C863A16B1B48C864A06B40
:100E30000564A06B4564A06B8564A06B05652168A3
:100E4000238D1031626AA06BFFF7DEFB58B184F886
:100E50003D6084F83E5054F8400F40F0100044F8D4
:100E600004092570C4E72068016841F480610160CD
:100E700084F83C502068416841F44071416020682A
:100E8000416841F400614160002070BD022070BDE6
:100E90000000FFFF25160008E515000802488168DC
:100EA0000278114481607047080000200B4810B59B
:100EB000016841F400710160016841F480610160E2
:100EC000016841F480710160032000F06FF8002098
:100ED00000F006F800F024F8002010BD003C0240AD
:100EE00070B50D4D04464FF47A712878B1FBF0F0DF
:100EF0000A490968B1FBF0F000F0F4FA48B9102C87
:100F000007D200222146501E00F030F800206C600D
:100F100070BD012070BD00000800002014000020FA
:100F20000A4808B5016841F480410160006800F496
:100F3000804000900548001F016841F08051016029
:100F4000006800F08050009008BD00004438024066
:100F5000002809DB00F01F020121914040098000B8
:100F600000F1E020C0F8001170470000F0B40E4B13
:100F70001B680C46C3F30223C3F10705042D00D9F7
:100F80000425191D072901D2002300E0DB1E0126DC
:100F900006FA05F1491E214099409E40761E1640F2
:100FA0003143F0BC01F0A9B80CED00E0064900F0B7
:100FB000070208684FF6FF03184040EA0220034A80
:100FC00010430860704700000CED00E00000FA05D7
:100FD0002DE9F0470E46050065D0DFF81481D8F8FA
:100FE0000000F7B200F00F00B04207D288F800709E
:100FF000D8F8000000F00F00B04254D128683D4CF2
:10100000810712D5400703D5206840F4E0502060E6
:101010002878000703D5206840F4604020602068ED
:10102000A96820F0F000084320602878C0072DD080
:10103000304968680839012812D0022813D00328E3
:1010400011D00968890700292DDA216821F00301F0
:1010500001432160FFF7F2FB814641F2883A0EE03E
:1010600009688903EFE709688901ECE7FFF7E6FB08
:10107000A0EB0901514502D90320BDE8F0872068A3
:10108000696800F00C00B0EB810FEFD1D8F80010C8
:10109000404601F00F01B14207D90770006800F027
:1010A0000F00B04201D00120E7E72878400705D5BE
:1010B0002068E96820F4E0500843206028780007A1
:1010C00006D52068296920F4604040EAC10020600C
:1010D00000F028F82168084AC1F30311515CC840A8
:1010E0000649086006480068FFF7FAFE0020C4E7DA
:1010F000003C02400838024068210008140000202B
:101100000C0000200448054900680968044AC1F33E
:101110008221515CC840704714000020083802400A
:1011200078210008154810B5006810F00C0214482A
:1011300013D01449042A0FD0082A0ED10F4C241FB3
:101140002268236802F03F025B0207D52068C0F3E3
:101150008810A0FB010106E0084610BD2168C1F31C
:101160008811A1FB00010023FFF72CF82168C1F3CF
:101170000141491C4900B0FBF1F010BD08380240A4
:101180000024F40040787D012DE9F84F04006ED072
:101190002078DFF83C93C007A9F104054AD009F193
:1011A00004000168C1F38101012908D00068C0F37F
:1011B000810002280AD1D9F80000400206D528682B
:1011C000800337D560680028E1D033E06068B0F56F
:1011D000803F10D0B0F5A02F286810D020F48030C8
:1011E0002860286820F4802028606068A8B1FFF794
:1011F00025FB06460DE0286840F48030F4E740F413
:1012000080202860F7E700BFFFF718FB801B6428E9
:1012100073D828688003F7D50CE0FFF70FFB06466C
:1012200005E000BFFFF70AFB801B6428F0D82868A0
:101230008003F7D42078DFF89C8280074FF0000A03
:101240003ED5A348001D016811F00C0F08D00068BE
:10125000C0F3810002280BD1D9F80000400207D466
:101260002868800716D5E068012800D112E02BE13C
:10127000E068B8B10120C8F80000FFF7DFFA0646C1
:1012800005E000BFFFF7DAFA801B0228C0D8286803
:101290008007F7D52868216920F0F80040EAC100EE
:1012A00028600DE0C8F800A0FFF7C8FA064604E081
:1012B000FFF7C4FA801B02281FD828688007F7D4DC
:1012C0002078000722D5824E83486169703671B15B
:1012D00001210160FFF7B2FA074604E0FFF7AEFA1A
:1012E000C01B022809D830688007F7D50EE0C0F887
:1012F00000A0FFF7A3FA074605E082E0FFF79EFA99
:10130000C01B02287DD830688007F7D420784007BA
:1013100068D5DFF8BCB100270BF13C0BDBF800000F
:10132000C0000BD4DBF8001041F08051CBF8001066
:10133000DBF80000012700F080500090674E306815
:10134000C00510D4306840F480703060FFF776FA42
:10135000009005E0FFF772FA0099401A022850D871
:101360003068C005F6D55A4EA0686C3601280FD0FB
:101370000528306810D020F001003060306820F07F
:1013800004003060A068B8B1FFF758FA00900FE091
:10139000306840F00100F4E740F004003060F7E707
:1013A000FFF74CFA0099411A41F28830814266D821
:1013B00030688007F4D50EE0FFF740FA009007E0B0
:1013C000FFF73CFA0099411A41F28830814256D821
:1013D00030688007F4D42FB1DBF8001021F0805181
:1013E000CBF80010A069C8B33949091D0968C1F3D9
:1013F000810102294AD00228504607D0C8F860006F
:1014000000E03CE0FFF71AFA04463BE04746C8F824
:101410006000FFF713FA064605E000BFFFF70EFA7B
:10142000801B02282BD828688001F7D4D4E9070153
:101430000843A16A2A4A490802EB0141626A41EA6B
:101440008211084394F82C1040EA0161C9F8001099
:1014500001203866FFF7F2F9044606E036E000BFE7
:10146000FFF7ECF9001B022809D828688001F7D59E
:101470002CE000BFFFF7E2F9001B022802D903208D
:10148000BDE8F88F28688001F4D41FE00128F7D068
:10149000D9F80000E26900F48001914214D1226A77
:1014A00000F03F0191420FD147F6C071626A0140DE
:1014B000914209D1A26A00F44031914204D1E16A1B
:1014C00000F07060884201D00120D9E70020D7E702
:1014D0000438024000004742800E4742007000403E
:1014E0000000FFFF10B5401EB0F1807F01D3012046
:1014F00010BD4FF0E02460610F21601700F0FDFD8A
:101500000020A06107202061002010BDFEE7000040
:101510000148FFF79BB90000180000200148FFF7C1
:10152000F2B900001800002038B5806B002190F857
:101530003D202B4B46F2A8141B68B3FBF4F3C3EB1E
:10154000C30303EB830300933BB15B1E009303686B
:101550001B689B0505D5009BF6E7036C43F0200351
:101560000364436B03B1D963836B03B1D96303682D
:101570001C6824F480641C604185436B03B11965C9
:10158000836B03B1196503681C6824F001041C60B7
:1015900090F83D402023602C0BD0282434EA02022E
:1015A0000FD080F83D3080F83E1000BFFFF7DEFA24
:1015B00038BD80F83D3080F83E100164FFF744F9F3
:1015C00038BD0268136843F00103136002681368B2
:1015D00043F480631360016380F83D40E6E7000058
:1015E0001400002070B5846B0025616B01B1CD63E0
:1015F000A16B01B1CD63FEF7C7FE022811D02068B0
:10160000016821F4806101606585202084F83D0037
:1016100084F83E50206C40F0100020642046FFF714
:10162000A5FA70BD2DE9F041846B94F83D2094F843
:101630003E50E16A2068436823F440734360636B63
:10164000002003B1D863A36B03B1D863212333EA2D
:1016500002074FF022060CD036EA020701D1202DF6
:1016600007D094F83E20002A21D0628D012A20D094
:1016700024E021684D6825F400654D6060852820D0
:10168000292A02D02A2A07D00CE0236384F83D00DF
:101690002046FFF798FB05E0266384F83D002046CE
:1016A000FFF790FB2068416841F440714160BDE85C
:1016B000F0812268136823F4806313602268536802
:1016C00023F44073536011F5803F06D0082904D0FD
:1016D000B1F12A4F01D0202904D121680A6842F4CF
:1016E00000720A6021684A6822F480524A602168C8
:1016F0004A6822F400624A606085216C19B1204674
:10170000FFF734FAD3E7202184F83D1094F83E1017
:1017100084F83E00402905D0122020632046FFF7C0
:10172000ECFAC4E720632046FFF7E9FABFE70000C0
:1017300070B5044690F83D0094F83E10102901D091
:10174000402906D1222804D121680A6822F40062C7
:101750000A60282131EA00024FF000054FF0200610
:1017600026D021684968090505D4602803D084F88B
:101770003D6084F83E50256320684168090537D5EF
:10178000416821F400614160606B90F835203C496C
:10179000012A11D00165606BFEF7E4FD38B32068C3
:1017A000016821F00101016084F83D60606B1CE07C
:1017B000256384F83D10DFE7A06B0165A06BFEF7A1
:1017C000D1FDA0B120684169C943490605D400692B
:1017D000616A0870606A401C60622068016821F0DC
:1017E0000101016084F83D60A06B016D884710E045
:1017F00094F83D10602910D04169C943490605D4C9
:101800000069616A0870606A401C60622046FFF7E8
:10181000ADF9206CC1071CD115E084F83D6025644A
:101820004169C943490605D40069616A0870606A64
:10183000401C60622068016821F0010101602046BF
:10184000FFF702F8E5E7810703D4410701D4000759
:1018500004D52068416821F4E061416094F83D00BE
:10186000216C49070BD5282809D10648E062256379
:1018700084F83D6084F83E502046FFF73DFA70BD85
:10188000291500080000FFFF10B5C26A438D0168EA
:10189000042B06D0438D032B08D0438D022B1DD083
:1018A00012E04A6822F480624A600CE04B6823F43C
:1018B00080634B60042A06D0022A04D001680A68BB
:1018C00022F480620A6001680969426A1170416A03
:1018D000491C4162418D491E418510BD012A30D00D
:1018E000102A2ED0042A30D0022A2ED00A6842F4C0
:1018F00000720A6001680969426A1170416A491CF4
:101900004162428D521E4285026812690A70416A24
:10191000491C4162418D491E418501684A6822F493
:1019200040724A60202180F83D1090F83E2000214E
:10193000402A80F83E100CD012210163FFF7DDF938
:1019400010BD0A6822F48062D3E70A6842F480621C
:10195000CFE70163FFF7D3F910BD000038B590F869
:101960003D10222914D1418D032912D9016809693A
:10197000426A1170416A491C4162418D491E41858C
:10198000418D032904D10068416821F480614160E0
:1019900038BDC26A022AFBD0012901D00029F7D143
:1019A000274946F2A81300220968B1FBF3F101EBC5
:1019B0008101009101682023009C641E009422D0C4
:1019C0000C68A405F8D40C6824F480640C600168E9
:1019D0004C6824F4E0644C6001680969446A217031
:1019E000416A491C4162418D491E418580F83D3064
:1019F00090F83E1080F83E2040291DD0122101634E
:101A0000FFF77BF938BD046C44F0200404644C6893
:101A100024F4E0644C6001680969446A2170416AF9
:101A2000491C4162418D491E418580F83D3080F856
:101A30003E20FFF79BF838BD0263FFF760F938BD21
:101A40001400002010B5C16A90F83D20212A0BD166
:101A5000428D52B1416A026809781161416A491C9C
:101A60004162418D491E418510BD00222023082975
:101A700010D020290ED011F5803F0BD001684C68A2
:101A800024F4E0644C601121016380F83E2080F86A
:101A90003D300EE001684C6824F4E0644C6001685D
:101AA0000C6844F400740C60026380F83D3080F8E8
:101AB0003E20FFF723F910BD10B590F83D1090F8C7
:101AC0003E30C26A048DB4B1212903D0402B11D11C
:101AD00022290FD1418DE1B390F83E10402942D028
:101AE000416A026809781161416A491C4162418D6D
:101AF000491E418510BD2129E8D120230021082A53
:101B000013D0202A11D012F5803F0ED002685468FD
:101B100024F4E06454601122026380F83E1080F8DF
:101B20003D3000BFFFF7EAF810BD0268546824F4A6
:101B3000E06454600268146844F400741460016343
:101B400080F83D3090F83E2080F83E10402AE9D1E0
:101B500000E002E0FFF7D4F810BD0068416821F40E
:101B60008061416010BDBDE8104000F0D3B80000B6
:101B700078B590F83E50C26A036B90F83D6000243F
:101B80000168222E7AD1066D0EB9402D76D0056DF2
:101B90001DB90569B5F5404F09D0458D05B3468D92
:101BA000384D012E0ED0438D022B3AD05DE04A69AC
:101BB0008A6900920A6842F480720A60016D491CC9
:101BC000016578BDAA4213D10A6822F480620A60D6
:101BD00001684A68120503D50A6822F4806216E09B
:101BE0004A698A6900920A6842F400720A6039E020
:101BF000082A10D0202A0ED0122B0AD0042A03D093
:101C0000022A01D0102AE7D10A6842F480620A60F1
:101C100024E0012AE0D00A6822F480620A600168A8
:101C2000DEE7042A21D0022A1FD0102A1DD00B681B
:101C300023F480630B6001680B6843F400630B605E
:101C400001684B681B0509D5AA4212D0012A10D0A1
:101C5000082A0ED0102A0CD0202A0AD001684A691E
:101C600089690091046578BD08E00B6843F48063DE
:101C7000E5E74A6842F480524A60EFE748698869BC
:101C80000090F0E70000FFFF90F83E10402910D0D0
:101C90000169B1F5804F19D0016DA9B3016D01291A
:101CA00010D1416C5FF0F10201F4407142EAD111B0
:101CB00006E0016D0029416C05D0C9B241F0010177
:101CC00000680161704701F0FE01F9E790F83D10EE
:101CD0002129416C09D0C9B241F0010102681161AA
:101CE000416B29B1C96B49B902E001F0FE01F5E78A
:101CF000816B0029E6D0C96B0029E3D000684168F8
:101D000041F4006141607047FFE7416CF02201F44B
:101D10004071CBE710B590F83D10026D22B3026D13
:101D2000012A2FD0026D022A1DD1222931D0428DE5
:101D30000AB1212933D0428D002A14D1212912D190
:101D400001684A6822F4E0624A6001680A6842F465
:101D500000720A6000210163202280F83D2080F893
:101D60003E10FEF7CDFF10BDC16C0129816C02D081
:101D7000C1F3072108E00268C9B21161016D891C35
:101D8000016510BD816CC9B202681161016D491C09
:101D9000F6E70068016841F48071016010BD416A96
:101DA000026809781161416A491C4162418D491EEE
:101DB000418510BD2DE9F04190F83D40C26A0023F5
:101DC00020261C4F01686FF48065082A01D0202A64
:101DD00001D1282C04D0212C16D04D61BDE8F08112
:101DE000C7624A6822F4E0624A6001684D61016896
:101DF0000A6822F480620A60036380F83D6080F81C
:101E00003E30FEF779FFE9E7C7622122026380F8DE
:101E10003D6080F83E304A6822F4E0624A60016822
:101E20004D6101680A6822F480620A60FEF7CBFF08
:101E3000D4E700000000FFFFF8B590F83D600446CD
:101E40000068416821F4E061416020680025416933
:101E50000091016841F0010101602068016821F4EE
:101E60008061016020684168090520D5474F222E16
:101E700048D02A2E46D0616B096849686185618D1A
:101E800019B1216C41F004012164416821F4006121
:101E90004160606BFEF77AFA012808D0606B076535
:101EA000606BFEF75FFA10B1606B016D8847608D63
:101EB00008B320684169C943490708D40069616AC9
:101EC0000870606A401C6062608D401E60852068FA
:101ED0004169C943490608D40069616A0870606AAB
:101EE000401C6062608D401E6085608D18B1206C62
:101EF00040F004002064206C00B32046BDE8F840A8
:101F0000FFF716BCA16B096849686185618D19B13D
:101F1000216C41F004012164416821F400614160B9
:101F2000A06BFEF733FA0128C1D0A06B0765A06B48
:101F3000FEF718FA0028BAD0A06BB6E72A2E06D111
:101F40002563282084F83D002046FEF73BFF94F8E7
:101F50003D10202028290DD0216B222901D0222ECE
:101F600007D1256384F83D0084F83E502046FEF7F3
:101F700029FFF8BD0649E162256384F83D0084F835
:101F80003E502046FEF7B8FEF8BD000029150008B7
:101F90000000FFFF094808B5016841F40011016025
:101FA0000068002200F40010009011460B20FEF79C
:101FB000DDFFBDE808400B20FEF7CABF3038024005
:101FC00030B587B014216846FEF734F91148002473
:101FD000016841F001010160016801F00101059112
:101FE000016841F00201016000680B4D00F0020041
:101FF0000590224602212846FEF71AFC0220009096
:102000000120CDE90104694628460394FEF734FB1C
:1020100007B030BD30380240000002400E4810B515
:102020000C4901600D49416000214FF480428160FC
:10203000C0E903120122C0E905214021C1618021CC
:102040000162FEF795FD002803D0BDE81040FEF7C1
:1020500088B910BD0054004018000020A08601007F
:10206000FEE7704770477047FEF718BF10B592B093
:1020700030216846FEF7DEF814210CA8FEF7DAF8E6
:1020800014480024016841F080510160006800F0AC
:10209000805011901048016841F48041016000684F
:1020A000069400F4804011900220009001200390DB
:1020B000102004906846FFF767F80F20CDE90C0464
:1020C0000E940F9400210CA81094FEF781FF12B01B
:1020D00010BD000040380240007000400548016813
:1020E00041F47001016003494FF0006080390860DD
:1020F0007047000088ED00E0FEE70907090E0028A0
:1021000004DB00F1E02080F80014704700F00F00BD
:1021100000F1E02080F8141D704702E008C8121F8B
:1021200008C1002AFAD170477047002001E001C1C0
:10213000121F002AFBD17047FEF7B8FEFFF796FF8B
:10214000FFF73EFFFFF726FFFFF768FF0722024970
:102150000248FEF739FEFEE70000002018000020CC
:102160000006101600061016000000000000000017
:10217000010203040607080900000000010203042D
:10218000A021000800000020180000001A2100080B
:10219000B821000818000020B80400002A21000817
:1021A000000000000000000001000000100000001E
:0821B000000000000024F4000F
:040000050800018965
:00000001FF
