:020000040800F2
:10000000C0040020A10100084F17000823160008B3
:100010004D170008AD020008371900080000000065
:10002000000000000000000000000000531700085E
:100030004903000800000000511700085517000888
:10004000BB010008BB010008BB010008BB010008A0
:10005000BB010008BB010008BB010008BB01000890
:10006000BB010008BB010008BB010008BB01000880
:10007000BB010008BB010008BB010008BB01000870
:10008000BB010008BB010008BB010008BB01000860
:10009000B1020008BB010008BB010008BB01000859
:1000A000BB010008BB010008BB010008BB01000840
:1000B000F9170008BB010008BB010008BB010008DC
:1000C000BB010008BB010008BB010008BB01000820
:1000D000BB010008BB010008BB010008BB01000810
:1000E000BB010008BB010008BB010008BB01000800
:1000F000BB010008BB010008BB010008BB010008F0
:10010000BB010008BB010008BB010008BB010008DF
:10011000BB010008BB010008BB010008BB010008CF
:10012000BB010008BB010008BB010008BB010008BF
:10013000BB010008BB010008BB010008BB010008AF
:10014000BB010008BB010008BB010008BB0100089F
:10015000BB010008BB010008BB010008BB0100088F
:10016000BB010008BB010008BB010008BB0100087F
:10017000BB010008BB010008BB0100080000000033
:10018000BB010008BB010008DFF810D000F07CF8CC
:100190000048004779190008AFF30080C004002030
:1001A0000648804706480047FEE7FEE7FEE7FEE711
:1001B000FEE7FEE7FEE7FEE7FEE7FEE7DD170008E5
:1001C000890100082DE9F05F0546002092469B4614
:1001D00088460646814640241BE02846414647465D
:1001E000224600F041F853465A46C01A914110D3B6
:1001F00011461846224600F028F82D1A67EB010830
:100200004F4622460120002100F01FF817EB00099D
:100210004E41201EA4F10104DFDC484631462A4647
:100220004346BDE8F09FD2B201E000F8012B491E21
:10023000FBD270470022F6E710B513460A46044683
:100240001946FFF7F0FF204610BD202A04DB203AB4
:1002500000FA02F1002070479140C2F1200320FA19
:1002600003F3194390407047202A04DB203A21FA17
:1002700002F00021704721FA02F3D040C2F12002BF
:100280009140084319467047064C074D06E0E06868
:1002900040F0010394E8070098471034AC42F6D3CD
:1002A000FFF776FFF8190008181A0008FEE70000AB
:1002B000014800F0C6B900005800002010B51048F1
:1002C00000F096FB0F49C02008220860012048601A
:1002D0000020C8600A61886008750B4978220A709E
:1002E00005224A708870C870087148718871C87199
:1002F0000122BDE810404021044800F095BC0000F8
:1003000058000020240000200400002000000240CB
:1003100000B58BB00020012101900290089105905A
:10032000CDE906010490009003900E2009906946E3
:10033000044800F08BF80221024800F007F80BB0E7
:1003400000BD0000580000207047704790F8202042
:10035000012A07D0022A05D0416A41F48021416276
:1003600001207047006842690A43426100207047DB
:10037000F0B590F820500468A468012D05D0022D36
:1003800003D0416A41F480215DE014F0406F01D157
:10039000E50055D5C4F30164022C03D9416A41F448
:1003A000000150E00125A5401D608D684FF4C07329
:1003B0009DB1CE6835434E6845EAC605066803EB35
:1003C0000417F5514FF4C275076805EB04150E6963
:1003D0007E51097D012905D009E00E88CD6845EAE6
:1003E0004655EBE701684E5946F480764E51117937
:1003F000D579567941EA056195792D0445EA0625B6
:1004000029434FF4C676056806EB0416A951117806
:10041000D57841EA0561957852782D0445EA0222A3
:1004200011434FF4C475026805EB0415515100687F
:1004300003EB0411425842F0010242500020F0BD8B
:10044000416A41F4001141620120F0BD10B590F8FD
:100450002020012A07D0022A05D0416A41F48021D8
:100460004162012010BD3B48D0F8002242F0010259
:10047000C0F80022D0F8002222F47C52C0F80022FA
:10048000D0F800224B6A42EA0322C0F800220A7D1B
:1004900002F01F0301229A40D0F81C329343C0F8A7
:1004A0001C32CB69B3B9D0F80C329343C0F80C328C
:1004B0008C894B6864F31F434C6900EBC404C4F897
:1004C00040320C890B6864F31F434C6900EBC40491
:1004D000C4F84432CB69012B16D1D0F80C32134347
:1004E000C0F80C320C884B6864F31F434C6900EB76
:1004F000C404C4F840320C89CB6864F31F434C69D0
:1005000000EBC404C4F844328B69002BD0F80432E9
:100510000ED01343C0F804320B69002BD0F814320C
:1005200008D01343C0F81432096A012904D008E046
:100530009343EFE79343F5E7D0F81C121143C0F85B
:100540001C12D0F8001221F00101C0F800120020A6
:1005500010BD000000640040704730B590F82040A6
:10056000012C05D0022C03D0416A41F480215DE0CA
:100570000468002955D02469A40754D04FF4D874D6
:10058000056804EB01142D5915F004059560056804
:100590002D594ED0ED08556005682C5904F0020421
:1005A000D4604FF4DA74056804EB01142D5905F09A
:1005B0000F05156105682D59C5F307259561056877
:1005C0002C59240C54614FF4DC72046802EB0112C4
:1005D000A4581C700468A458240A5C700468A458C9
:1005E000240C9C700468A258120EDA704FF4DE726C
:1005F000046802EB0112A4581C710468A458240A70
:100600005C710468A458240C9C710468A258120EF2
:10061000DA71006881B1016941F0200101610020B7
:1006200030BDE468A8E7416A41F40011416201204D
:1006300030BD6D0D1560AFE7C16841F02001C160AC
:10064000EDE72DE9F05F0546006800244669D0F823
:1006500004908768D0F80CB0D0F810A0D0F81880BB
:10066000F10748D0F90714D001218160B80703D5FC
:10067000284600F0EAF90CE0780702D54FF4006450
:1006800007E0380702D54FF4805402E0284600F016
:10069000DBF9F80516D529684FF480708860B80535
:1006A00003D5284600F0D3F90CE0780502D544F4D0
:1006B000005407E0380502D544F4804402E028469F
:1006C00000F0C4F9F80316D529684FF4803088602B
:1006D000B80303D5284600F0BCF90CE0780302D536
:1006E00044F4004407E0380302D544F4803402E0C7
:1006F000284600F0ADF9300707D55FEACB6004D596
:100700002968102044F40074C86070074FF008078F
:1007100007D55FEA0B7004D52868C760284600F04B
:1007200057F9B00706D52868C068800702D0284668
:1007300000F050F9700607D55FEACA6004D5296851
:10074000102044F480640861B00607D55FEA0A709F
:1007500004D528680761284600F046F9F00606D55A
:1007600028680069800702D0284600F03EF9B003EF
:1007700008D55FEAC96005D5296810204860284679
:1007800000F034F9F00307D55FEA097004D5286852
:100790004760284600F05EF9300446D55FEA4970AC
:1007A00040D5F00504D55FEAC87001D044F00104DB
:1007B000B00504D55FEA887001D544F002047005E5
:1007C00004D55FEA487001D544F00404300529D50A
:1007D00018F0700F26D008F07000402815D006DC05
:1007E000102809D020280AD0302816D10AE0502835
:1007F0000ED0602811D10EE044F008040DE044F062
:1008000010040AE044F0200407E044F0400404E04F
:1008100044F0800401E044F480742868816921F088
:1008200070018161296804204860002C05D0686A45
:10083000204368622846FFF78FFEBDE8F09F70B541
:10084000040003D094F8200010B104E0012070BD32
:10085000204600F081F82068016821F00201016063
:1008600000F0E8F90546052604E000F0E3F9401B36
:100870000A2811D8206840688007F6D420680168EB
:1008800041F00101016000F0D5F905460BE000F0F0
:10089000D1F9401B0A2806D9606A40F40030606232
:1008A00084F82060D2E720684068C007EFD0207E3F
:1008B0000128206801683DD021F080010160607E40
:1008C00001282068016838D021F040010160A07E35
:1008D00001282068016833D021F020010160E07E0A
:1008E0000128206801682ED041F010010160207FAE
:1008F00001282068016829D021F008010160607F8B
:1009000001282068016824D021F004010160D4E9A5
:1009100002010843D4E90412114308436168491EE7
:1009200008432168C86100206062012084F820002B
:10093000002070BD41F08001C0E741F04001C5E7F3
:1009400041F02001CAE721F01001CFE741F0080192
:10095000D4E741F00401D9E710B586B0044614216C
:100960006846FFF767FC17492068884227D1164878
:100970000021026842F000720260006800F000701E
:10098000059011481038026842F0080202600068C1
:10099000022200F0080005900320CDE90210CDE905
:1009A0000002092004906946084800F055F800222A
:1009B0001146142000F0ACF9142000F09BF906B0A9
:1009C00010BD00000064004040380240000C0240AE
:1009D00070470000024B034A0021FFF7BEBD000034
:1009E0000C0000203C00002070477047704700005A
:1009F00070B5044690F82000012804D0606A40F4E5
:100A00000020606218E0022084F82000206801685D
:100A100021F00101016000F00DF905460EE000BF74
:100A200000F008F9401B0A2808D9606A40F4003039
:100A30006062052084F82000012070BD20684068B5
:100A4000C007EDD1606270BD704770477047704756
:100A500070477047704700002DE9F84F00224FF0B3
:100A6000010803254FF00F0E0B6808FA02F423402B
:100A7000A3426ED14E68012E05D0022E03D0112E56
:100A800001D0122E12D186684FEA420C05FA0CF7FB
:100A9000BE43CF6807FA0CF7374387604668A64322
:100AA0000C79C4F30014944034434460C668570082
:100AB00005FA07FC8C6826EA0C06BC403443C46087
:100AC0004C68022C01D0122C13D1D40800EB840402
:100AD000A346D4F8209054074FEAD46A0EFA0AF6D7
:100AE00029EA06090E6906FA0AF646EA0906CBF86B
:100AF000206006680C7926EA0C0604F00304BC406A
:100B0000344304604C68E40065D5364C266846F4EE
:100B100080462660246822F0030604F48044009492
:100B2000314C3444A446D4F808489607370F0EFADF
:100B300007F6B4432D4EB04201D1002624E02C4EDE
:100B4000B04201D101261FE02A4EB04202D1022656
:100B50001AE040E0284EB04201D1032614E0274EAF
:100B6000B04201D104260FE0254EB04201D1052646
:100B70000AE0244EB04201D1062605E0224EB042E2
:100B800001D1072600E00826BE402643CCF80868BD
:100B90001E4E34684F689C43FF0300D51C433460ED
:100BA0001A4C241D26684F689E43BF0300D51E4380
:100BB0002660164E083634684F689C43FF0200D505
:100BC0001C433460114E0C3634684F689C43BF029E
:100BD00000D51C433460521C102AFFF445AFBDE819
:100BE000F88F00004438024000300140000002400D
:100BF0000004024000080240000C024000100240C5
:100C00000014024000180240001C0240003C014059
:100C10000069084000D001207047426931EA0202B1
:100C200000D10904816170470AB1816170470904EC
:100C3000FBE70000014880687047000014000020B6
:100C400002488168027811448160704714000020D6
:100C50000B4810B5016841F400710160016841F46E
:100C600080610160016841F480710160032000F03F
:100C70006FF8002000F006F800F024F8002010BD06
:100C8000003C024070B50D4D04464FF47A7128784F
:100C9000B1FBF0F00A490968B1FBF0F000F0E2FAAC
:100CA00048B9102C07D200222146501E00F030F81F
:100CB00000206C6070BD012070BD00001400002099
:100CC000200000200A4808B5016841F48041016015
:100CD000006800F4804000900548001F016841F062
:100CE00080510160006800F08050009008BD000055
:100CF00044380240002809DB00F01F020121914026
:100D00004009800000F1E020C0F8001170470000A9
:100D1000F0B40E4B1B680C46C3F30223C3F1070566
:100D2000042D00D90425191D072901D2002300E054
:100D3000DB1E012606FA05F1491E214099409E401E
:100D4000761E16403143F0BC00F0F6BD0CED00E01D
:100D5000064900F0070208684FF6FF03184040EA12
:100D60000220034A10430860704700000CED00E0C9
:100D70000000FA052DE9F0470E46050065D0DFF8C2
:100D80001481D8F80000F7B200F00F00B04207D28B
:100D900088F80070D8F8000000F00F00B04254D17D
:100DA00028683D4C810712D5400703D5206840F4E0
:100DB000E05020602878000703D5206840F46040A8
:100DC00020602068A96820F0F0000843206028789F
:100DD000C0072DD0304968680839012812D0022890
:100DE00013D0032811D00968890700292DDA21685A
:100DF00021F0030101432160FFF71CFF814641F20E
:100E0000883A0EE009688903EFE709688901ECE791
:100E1000FFF710FFA0EB0901514502D90320BDE8FF
:100E2000F0872068696800F00C00B0EB810FEFD10B
:100E3000D8F80010404601F00F01B14207D9077001
:100E4000006800F00F00B04201D00120E7E72878E9
:100E5000400705D52068E96820F4E0500843206089
:100E60002878000706D52068296920F4604040EA08
:100E7000C100206000F018F82168084AC1F303118E
:100E8000515CC8400649086006480068FFF7FAFE52
:100E90000020C4E7003C024008380240E81900087E
:100EA0002000002018000020154810B5006810F040
:100EB0000C02144813D04110042A0FD0082A0ED176
:100EC0000F4C241F2268236802F03F025B0207D503
:100ED0002068C0F38810A0FB010106E0084610BDA1
:100EE0002168C1F38811A1FB00010023FFF76AF913
:100EF0002168C1F30141491C4900B0FBF1F010BD6C
:100F0000083802400024F4002DE9F84F04006ED0A8
:100F10002078DFF83C93C007A9F104054AD009F115
:100F200004000168C1F38101012908D00068C0F301
:100F3000810002280AD1D9F80000400206D52868AD
:100F4000800337D560680028E1D033E06068B0F5F1
:100F5000803F10D0B0F5A02F286810D020F480304A
:100F60002860286820F4802028606068A8B1FFF716
:100F700061FE06460DE0286840F48030F4E740F456
:100F800080202860F7E700BFFFF754FE801B64282D
:100F900073D828688003F7D50CE0FFF74BFE0646B0
:100FA00005E000BFFFF746FE801B6428F0D82868E4
:100FB0008003F7D42078DFF89C8280074FF0000A86
:100FC0003ED5A348001D016811F00C0F08D0006841
:100FD000C0F3810002280BD1D9F80000400207D4E9
:100FE0002868800716D5E068012800D112E02BE1BF
:100FF000E068B8B10120C8F80000FFF71BFE064604
:1010000005E000BFFFF716FE801B0228C0D8286845
:101010008007F7D52868216920F0F80040EAC10070
:1010200028600DE0C8F800A0FFF704FE064604E0C3
:10103000FFF700FE801B02281FD828688007F7D41E
:101040002078000722D5824E83486169703671B1DD
:1010500001210160FFF7EEFD074604E0FFF7EAFD1E
:10106000C01B022809D830688007F7D50EE0C0F809
:1010700000A0FFF7DFFD074605E082E0FFF7DAFD9D
:10108000C01B02287DD830688007F7D4207840073D
:1010900068D5DFF8BCB100270BF13C0BDBF8000092
:1010A000C0000BD4DBF8001041F08051CBF80010E9
:1010B000DBF80000012700F080500090674E306898
:1010C000C00510D4306840F480703060FFF7B2FD86
:1010D000009005E0FFF7AEFD0099401A022850D8B5
:1010E0003068C005F6D55A4EA0686C3601280FD07E
:1010F0000528306810D020F001003060306820F002
:1011000004003060A068B8B1FFF794FD00900FE0D4
:10111000306840F00100F4E740F004003060F7E789
:10112000FFF788FD0099411A41F28830814266D864
:1011300030688007F4D50EE0FFF77CFD009007E0F3
:10114000FFF778FD0099411A41F28830814256D864
:1011500030688007F4D42FB1DBF8001021F0805103
:10116000CBF80010A069C8B33949091D0968C1F35B
:10117000810102294AD00228504607D0C8F86000F1
:1011800000E03CE0FFF756FD04463BE04746C8F868
:101190006000FFF74FFD064605E000BFFFF74AFD80
:1011A000801B02282BD828688001F7D4D4E90701D6
:1011B0000843A16A2A4A490802EB0141626A41EAEE
:1011C0008211084394F82C1040EA0161C9F800101C
:1011D00001203866FFF72EFD044606E036E000BF2A
:1011E000FFF728FD001B022809D828688001F7D5E1
:1011F0002CE000BFFFF71EFD001B022802D90320D0
:10120000BDE8F88F28688001F4D41FE00128F7D0EA
:10121000D9F80000E26900F48001914214D1226AF9
:1012200000F03F0191420FD147F6C071626A014060
:10123000914209D1A26A00F44031914204D1E16A9D
:1012400000F07060884201D00120D9E70020D7E784
:101250000438024000004742800E474200700040C0
:101260000000FFFF10B5401EB0F1807F01D30120C8
:1012700010BD4FF0E02460610F21601700F05CFBAF
:101280000020A06107202061002010BD704770473A
:1012900070B590F83C20012A32D0012480F83C40FF
:1012A000022280F83D2003685A689D6822F070068B
:1012B0000A6832435A60134B02689A4214D0B2F162
:1012C000804F11D0104B9A420ED0104B9A420BD047
:1012D0000F4B9A4208D00F4B9A4205D00E4B9A42C0
:1012E00002D00E4B9A4204D1496825F0800319437D
:1012F000916080F83D40002180F83C10084670BDA8
:10130000022070BD000001400004004000080040C1
:10131000000C004000040140004001400018004063
:1013200010B5040003D094F83D0010B107E001208F
:1013300010BD002084F83C00204600F00DF802208B
:1013400084F83D00211D206800F05CFA012084F83B
:101350003D00002010BD000008B50068B0F1804FCE
:1013600012D10A48016841F00101016000680022C1
:1013700000F00100009011461C20FFF7C9FCBDE8F9
:1013800008401C20FFF7B6BC08BD000040380240F2
:101390000168CA6842F00102CA600068816801F011
:1013A0000701062903D0016841F001010160002016
:1013B000704770B5044690F83C00012817D001250D
:1013C00084F83C50022084F83D002068826822F0B6
:1013D000770222F47F4282600868502830D00DDC0A
:1013E00020284DD005DC98B310283BD148E00220DE
:1013F00070BD302844D0402834D139E0602828D04E
:10140000702806D0B0F5805F2CD0B0F5005F29D1F0
:101410000AE0CB68D1E90121206800F057FA206882
:10142000816841F0770109E0CB68D1E901212068AA
:1014300000F04CFA2068816841F48041816011E03D
:10144000CA684968206800F053FA5021206807E014
:1014500016E0CA684968206800F05BFA60212068DD
:1014600000F03EFA84F83D50002084F83C0070BD46
:10147000CA684968206800F03BFA40212068EFE71D
:10148000226801461046EBE7704770B504460068D5
:1014900001694FF00005C943890715D4C168C943E4
:1014A000890711D4E91E0161012020772068806935
:1014B0008007204602D0FFF7E7FF04E000F098F82D
:1014C000204600F096F8257720680169C94349074E
:1014D00017D4C168C943490713D46FF004010161EF
:1014E000022020772068806910F4407F204602D0D7
:1014F000FFF7CAFF04E000F07BF8204600F079F81F
:10150000257720680169C943090716D4C168C94312
:10151000090712D46FF008010161042020772068C8
:10152000C0698007204602D0FFF7AEFF04E000F05C
:101530005FF8204600F05DF8257720680169C9430F
:10154000C90617D4C168C943C90613D46FF0100186
:101550000161082020772068C06910F4407F204690
:1015600002D0FFF791FF04E000F042F8204600F0BF
:1015700040F8257720680169C943C90708D1C168C7
:10158000C943C90704D1891E0161204600F032F821
:1015900020680169C943090609D4C168C94309061D
:1015A00005D46FF0800101612046FFF76FFE2068CF
:1015B0000169C943490609D4C168C943490605D42C
:1015C0006FF040010161204600F02AF820680169AF
:1015D000C94389060BD4C168C943890607D46FF093
:1015E000200101612046BDE87040FFF750BE70BD8C
:1015F00070477047064B10B51A1D06490648FEF79E
:10160000B7FEBDE8104002210448FFF706BB00000A
:1016100000000020240000205800002000000240AC
:101620007047FEE70F4810B50D4901600721416082
:1016300000214FF480228160C0E903124FF4A00220
:101640004261017641768176C17601774177FFF775
:10165000F6F8002803D0BDE81040FEF776BE10BDB6
:10166000006400405800002070B586B01421684620
:10167000FEF7E0FD19480024016841F08001016097
:10168000016801F080010591016841F001010160EC
:10169000016801F001010591016841F00801016054
:1016A00000680F4E00F008000590002262213046CD
:1016B000FFF7BAFA012502200095CDE901406946FD
:1016C0003046FFF7C9F962200090CDE90154694620
:1016D00030460394FFF7C0F906B070BD30380240C1
:1016E0000000024010B586B0002417480094019411
:1016F0000294039404944FF08041059401604AF2EF
:101700001041C0E901146421C0E903148461FFF7AA
:1017100007FE08B1FEF719FE4FF4805000906946AD
:101720000948FFF746FE08B1FEF70FFE2020CDE97D
:10173000040404A90448FFF7ABFD002801D0FEF71C
:1017400004FE06B010BD000080000020FEE77047D8
:1017500070477047FFF774BA30B593B030216846D0
:10176000FEF768FD14210CA8FEF764FD194800255A
:10177000016841F080510160006800F080501190D4
:101780001548016841F4804101600068022400F4BA
:101790008040119001200090000401908001CDE96B
:1017A000064008AA0420A82182E813000B9068468E
:1017B000FFF7AAFB0CA90F2081E831004FF4A050DD
:1017C0000F90E002109005210CA8FFF7D3FA13B098
:1017D00030BD0000403802400070004005480168FC
:1017E00041F47001016003494FF0006080390860E6
:1017F0007047000088ED00E00148FFF746BE00009A
:1018000080000020F0B50268254C264D264E274F5B
:10181000274B4FF0804CA04209D0604507D0A8422A
:1018200005D0B04203D0B84201D0984204D122F092
:10183000700E4A6842EA0E02A0421BD0604519D0E1
:10184000A84217D0B04215D0B84213D0984211D058
:10185000184DA8420ED0184DA8420BD0174DA842E3
:1018600008D0174DA84205D0164DA84202D0164DFB
:10187000A84203D122F44075CA682A434D6922F078
:1018800080022A4302608A68C2620A688262A042B9
:1018900001D0984201D10969016301214161F0BD84
:1018A000000001400004004000080040000C00401F
:1018B0000004014000400140004401400048014054
:1018C00000180040001C00400020004010B5846853
:1018D00042EA032224F47F440A432243826010BD7B
:1018E000826822F070020A4342F00701816070476B
:1018F00010B5036A046A24F001040462846924F0C8
:10190000F00444EA021423F00A020A4384610262EA
:1019100010BD10B5036A23F0100303628369046AE3
:1019200023F4704343EA023224F0A00343EA011196
:101930008261016210BDFEE70907090E002804DB81
:1019400000F1E02080F80014704700F00F0000F173
:10195000E02080F8141D704702E008C8121F08C17B
:10196000002AFAD170477047002001E001C1121F20
:10197000002AFBD170470000FFF76AF9FFF7ECFE81
:10198000FFF772FEFFF7AEFEFFF74CFE1248FFF7BF
:10199000FFFCFEF7BDFCFEF791FC104C104D114E04
:1019A000D0274FF0B4084FF0C0094FF0C80A01210A
:1019B0002046FFF72DF948B1C5F8009086F800A041
:1019C000002240212046FFF72FF9F0E72F6086F82C
:1019D00000800122F5E700008000002000000240A6
:1019E000240000200400002000000000000000008F
:1019F0000102030406070809181A00080000002065
:101A000024000000581900083C1A00082400002097
:101A10009C0400006819000800000000000000009D
:101A200000000000000000000000000001000000B5
:0C1A300010000000000000000024F40082
:040000050800018965
:00000001FF
