:020000040800F2
:1000000098050020A1010008FB2300082721000813
:10001000F923000871050008E7250008000000002A
:10002000000000000000000000000000FF230008A6
:10003000B906000800000000FD23000801240008A4
:10004000BB010008BB010008BB010008BB010008A0
:10005000BB010008BB010008BB010008BB01000890
:10006000BB060008C1060008C7060008BB0100085F
:10007000BB010008BB010008BB010008BB01000870
:10008000BB010008BB010008BB010008BB01000860
:1000900075050008BB010008BB010008BB01000892
:1000A000BB010008BB010008BB010008BB01000840
:1000B000A9240008BB010008BB010008BB0100081F
:1000C000BB010008BB010008BB010008BB01000820
:1000D000BB010008BB010008BB010008BB01000810
:1000E000BB010008BB010008BB010008BB01000800
:1000F000BB010008BB010008BB010008BB010008F0
:10010000BB010008BB010008BB010008BB010008DF
:10011000BB010008BB010008BB010008BB010008CF
:1001200009060008BB010008BB010008BB0100086C
:10013000BB010008BB010008BB010008BB010008AF
:10014000BB010008BB010008BB010008BB0100089F
:10015000BB010008BB010008BB010008BB0100088F
:10016000BB010008BB010008BB010008BB0100087F
:10017000BB010008BB010008BB0100080000000033
:10018000BB010008BB010008DFF810D000F002F945
:100190000048004731270008AFF300809805002091
:1001A0000648804706480047FEE7FEE7FEE7FEE711
:1001B000FEE7FEE7FEE7FEE7FEE7FEE78D24000828
:1001C000890100082DE9F05F0546002092469B4614
:1001D00088460646814640241BE02846414647465D
:1001E000224600F06AF853465A46C01A914110D38D
:1001F00011461846224600F051F82D1A67EB010807
:100200004F4622460120002100F048F817EB000974
:100210004E41201EA4F10104DFDC484631462A4647
:100220004346BDE8F09FD2B201E000F8012B491E21
:10023000FBD270470022F6E710B513460A46044683
:100240001946FFF7F0FF204610BD0EB5C10F80EA3A
:10025000E0700844CA07002140F233438DE80E00E5
:100260000A460B4600F048F803B000BD30B5041E46
:1002700071F1000404DB4FF00044404264EB0101E3
:10028000141E73F1000405DB1C464FF0004352427C
:1002900063EB0403994208BF904230BD202A04DB7F
:1002A000203A00FA02F1002070479140C2F1200389
:1002B00020FA03F3194390407047202A04DB203AC8
:1002C00021FA02F00021704721FA02F3D040C2F176
:1002D0002002914008431946704710B5141E73F16F
:1002E000000408DA401C41F1000192185B411A43F6
:1002F00001D120F0010010BD2DE9F04D92469B4642
:1003000011B1B1FA81F202E0B0FA80F220329046E7
:10031000FFF7C4FF04460F4640EA0A0041EA0B011A
:1003200053465A46084313D0114653EA010019D0E8
:10033000C8F140025046FFF7C0FF05460E46504642
:1003400059464246FFF7AAFF084305D0012004E0C2
:1003500020463946BDE8F08D0020054346EAE076A8
:100360002C4337430A986305E40AA0EB08000022F7
:10037000FD0A44EA47540A3002D500200146E9E765
:10038000010510196941DDE9084500196941BDE819
:10039000F04DA2E7064C074D06E0E06840F001038F
:1003A00094E8070098471034AC42F6D3FFF7F0FE0C
:1003B000B4280008D428000810B50146806B026CF0
:1003C00012F0500F05D0026CD20626D500F028FAA4
:1003D00010BD016C41F40071016401688A6812F07B
:1003E000405F17D1027EAAB9CA6A12F4700F02D018
:1003F0008A6852050ED44A6822F020024A60016CD5
:1004000021F480710164016CC90403D4016C41F0D2
:100410000101016400F002FA10BD806BC26CBDE8FE
:1004200010400846104710B5806B40210164416CB4
:1004300041F00401416400F0F3F910BD10B5806B88
:1004400000F0EDF910BD0000464910B54A6822F4ED
:1004500040324A604A6843681A434A6001684A6801
:1004600022F480724A6001684A68036942EA032202
:100470004A6001684A6822F040724A6001684A682E
:1004800083681A434A6001688A6822F400628A60BD
:1004900001688A68C3681A438A60816A6FF0706273
:1004A000D14201688A6822F070628A6001688A68B5
:1004B0000CD0836A1A438A6001688A6822F040522D
:1004C0008A6001688A68C36A1A4301E022F04052D8
:1004D0008A6001688A6822F002028A6001688A687C
:1004E000037E42EA43028A6090F8201000290168E6
:1004F0004A680FD042F400624A6001684A6822F4F8
:1005000060424A6001684A68174C436A04EB43330F
:100510001A4301E022F400624A600168CA6A22F4C8
:100520007002CA620168CA6A838B104C04EB0353E1
:100530001A43CA6201688A6822F400728A600168FC
:100540008A6890F8303042EA43228A6001688A68FB
:1005500022F480628A6001688A68406942EA8020E9
:10056000886010BD0023014000E0FFFF0000F0FFA5
:10057000FEE70000014800F0DEBB0000240100207F
:1005800010B5104800F0A6FD0F49C02008220860F1
:10059000012048600020C8600A61886008750B4926
:1005A000087048708870C870087148718871C87187
:1005B0000831087048708870C87008714871887177
:1005C000C87110BD24010020480000201E0000203A
:1005D00000B58BB000200121019002900891059098
:1005E000CDE906010490009003900E200990694621
:1005F000044800F0A5FA0221024800F021FA0BB0ED
:1006000000BD000024010020014800F097BD00005B
:10061000C400002001681823CAB2103AB2FBF3F2FA
:10062000054B6FF30901032A9B5CC36500D9091DC3
:1006300081650846704700009C28000810B50146F7
:1006400000208B698A6A4FF0C07453B1B3F5005F24
:1006500015D072B1012A0CD0022A0AD0032A09D17E
:1006600004E01AB1012A06D0022A03D1C96AC901DD
:1006700000D5012010BDC96AA142FAD010BD002AE0
:10068000F7D0012AF2D0022AF3D0032AF3D010BD0A
:1006900030B50468256825F480252560046863600A
:1006A0008368402B036803D099600068C26030BD46
:1006B0009A600068C16030BD7047042000F00CBF34
:1006C000082000F009BF102000F006BF70470000AE
:1006D00078B50024009490F83C20012A19D001221A
:1006E00080F83C200A6807230568092A13D9EE68B8
:1006F0000A3A02EB420293409E43EE600B788A680E
:100700000A3B03EB43039A400368DD682A43DA603F
:1007100010E0022078BD2E6902EB420293409E4316
:100720002E610B788A6803EB43039A4003681D69C6
:100730002A431A614A681F23072A13D205686E6B81
:10074000521E02EB820293409E436E630B790A882D
:100750005B1E92B203EB83039A4003685D6B2A43EE
:100760005A6327E005680D2A12D22E6BD21F02EBC6
:10077000820293409E432E630B790A88DB1F92B25C
:1007800003EB83039A4003681D6B2A431A6311E04D
:10079000EE6A0D3A02EB820293409E43EE620B79C1
:1007A0000A880D3B92B203EB83039A400368DD6A2B
:1007B0002A43DA62164B0568144A9D4206D10D6839
:1007C000122D03D1556845F48005556005689D429A
:1007D00018D10B68102B01D0112B13D1536843F49F
:1007E00000035360096810290CD10A490A4A0968B4
:1007F000B1FBF2F101EB8101490000E0491E0091DB
:100800000029FBD180F83C40002078BD0023014046
:10081000002001404400002040420F007047704714
:10082000704770B504004FF0000503D0206C00261F
:1008300010B107E0012070BD204600F01DF866648D
:1008400084F83C60206CC00610D4206C20F48850E2
:1008500040F0020020642046FFF7F6FD6664206C3D
:1008600020F0020040F00100206400E0012584F83F
:100870003C60284670BD000070B586B00646142165
:100880006846FFF7D7FC1D493068884234D11C48C0
:100890000025016841F480710160006800F48070F7
:1008A000059017481438016841F0010101600068A3
:1008B000694600F0010005901C2000900320CDE95E
:1008C0000105104800F014FE104C0F48C4E9000563
:1008D0000015A560C4E90350400060618000A0617C
:1008E0004011C4E907052046656200F0F7FC08B135
:1008F000FFF7ECFEB463A66306B070BD00200140B4
:10090000443802400000024010640240C40000204D
:10091000F8B50E4600210446009190F83C000128ED
:1009200007D0012084F83C0020688368DB0702D0F0
:1009300011E00220F8BD836843F00103836037486B
:10094000374B0068B0FBF3F000EB400000E0401EC6
:1009500000900028FBD120688368DB075CD0236C03
:1009600040F20165AB4343F4807323644068400563
:1009700005D5206C20F4005040F480502064206C99
:10098000C00404D5606C20F00600606400E061647F
:1009900084F83C10A16B2448224DC863A16B234806
:1009A0000864A16B2248C86421686FF022000860C7
:1009B0002068416841F0806141602068816841F4AD
:1009C000807181602168134632464C31A06B00F083
:1009D000EFFC68681749C006206806D088421BD122
:1009E000816811F0405F13D016E08842F8D0124AB7
:1009F000904203D1D1F80423D206F1D00F4A90429D
:100A00000AD1D1F8041301F01F011029E8D303E043
:100A1000816841F0804181600020F8BD44000020E1
:100A200040420F0000230140B90300083D040008C4
:100A3000270400080020014000210140002201405D
:100A400090F82020012A07D0022A05D0416A41F4FB
:100A50008021416201207047006842690A43426177
:100A600000207047F0B590F820500468A468012D6C
:100A700005D0022D03D0416A41F480215DE014F0DD
:100A8000406F01D1E50055D5C4F30164022C03D9B0
:100A9000416A41F4000150E00125A5401D608D68C8
:100AA0004FF4C0739DB1CE6835434E6845EAC60524
:100AB000066803EB0417F5514FF4C275076805EBA0
:100AC00004150E697E51097D012905D009E00E88C3
:100AD000CD6845EA4655EBE701684E5946F4807605
:100AE0004E511179D579567941EA056195792D04F0
:100AF00045EA062529434FF4C676056806EB041639
:100B0000A9511178D57841EA0561957852782D047C
:100B100045EA022211434FF4C475026805EB04153F
:100B20005151006803EB0411425842F00102425057
:100B30000020F0BD416A41F4001141620120F0BD86
:100B400010B590F82020012A07D0022A05D0416A6A
:100B500041F480214162012010BD3B48D0F80022C1
:100B600042F00102C0F80022D0F8002222F47C52A8
:100B7000C0F80022D0F800224B6A42EA0322C0F8F3
:100B800000220A7D02F01F0301229A40D0F81C3295
:100B90009343C0F81C32CB69B3B9D0F80C329343FD
:100BA000C0F80C328C894B6864F31F434C6900EB2E
:100BB000C404C4F840320C890B6864F31F434C69C9
:100BC00000EBC404C4F84432CB69012B16D1D0F831
:100BD0000C321343C0F80C320C884B6864F31F438B
:100BE0004C6900EBC404C4F840320C89CB6864F350
:100BF0001F434C6900EBC404C4F844328B69002BDA
:100C0000D0F804320ED01343C0F804320B69002B25
:100C1000D0F8143208D01343C0F81432096A0129FD
:100C200004D008E09343EFE79343F5E7D0F81C12B4
:100C30001143C0F81C12D0F8001221F00101C0F8D5
:100C40000012002010BD000000640040704730B565
:100C500090F82040012C05D0022C03D0416A41F4C9
:100C600080215DE00468002955D02469A40754D090
:100C70004FF4D874056804EB01142D5915F00405E0
:100C8000956005682D594ED0ED08556005682C59C2
:100C900004F00204D4604FF4DA74056804EB011424
:100CA0002D5905F00F05156105682D59C5F3072568
:100CB000956105682C59240C54614FF4DC7204686A
:100CC00002EB0112A4581C700468A458240A5C703A
:100CD0000468A458240C9C700468A258120EDA70A0
:100CE0004FF4DE72046802EB0112A4581C71046810
:100CF000A458240A5C710468A458240C9C710468EC
:100D0000A258120EDA71006881B1016941F0200128
:100D10000161002030BDE468A8E7416A41F4001198
:100D20004162012030BD6D0D1560AFE7C16841F033
:100D30002001C160EDE72DE9F05F05460068002461
:100D40004669D0F804908768D0F80CB0D0F810A0AD
:100D5000D0F81880F10748D0F90714D0012181603C
:100D6000B80703D5284600F0E2F90CE0780702D571
:100D70004FF4006407E0380702D54FF4805402E0D6
:100D8000284600F0D3F9F80516D529684FF480708D
:100D90008860B80503D5284600F0CBF90CE078054B
:100DA00002D544F4005407E0380502D544F48044E9
:100DB00002E0284600F0BCF9F80316D529684FF484
:100DC00080308860B80303D5284600F0B4F90CE001
:100DD000780302D544F4004407E0380302D544F414
:100DE000803402E0284600F0A5F9300707D55FEA15
:100DF000CB6004D52968102044F40074C8607007E3
:100E00004FF0080707D55FEA0B7004D52868C76064
:100E1000284600F04FF9B00706D52868C06880075B
:100E200002D0284600F048F9700607D55FEACA608C
:100E300004D52968102044F480640861B00607D501
:100E40005FEA0A7004D528680761284600F03EF979
:100E5000F00606D528680069800702D0284600F011
:100E600036F9B00308D55FEAC96005D529681020B6
:100E70004860284600F02CF9F00307D55FEA0970B6
:100E800004D528684760284600F056F9300446D556
:100E90005FEA497040D5F00504D55FEAC87001D01B
:100EA00044F00104B00504D55FEA887001D544F030
:100EB0000204700504D55FEA487001D544F00404CB
:100EC000300529D518F0700F26D008F070004028A2
:100ED00015D006DC102809D020280AD0302816D1D9
:100EE0000AE050280ED0602811D10EE044F008042A
:100EF0000DE044F010040AE044F0200407E044F060
:100F0000400404E044F0800401E044F48074286864
:100F1000816921F070018161296804204860002CFA
:100F200005D0686A204368622846FFF78FFEBDE857
:100F3000F09F70B5040003D094F8200010B104E0D5
:100F4000012070BD204600F081F82068016821F082
:100F50000201016000F0BAFB0546052604E000F03E
:100F6000B5FB401B0A2811D8206840688007F6D4DA
:100F70002068016841F00101016000F0A7FB05460F
:100F80000BE000F0A3FB401B0A2806D9606A40F47E
:100F90000030606284F82060D2E720684068C007B3
:100FA000EFD0207E0128206801683DD021F080012B
:100FB0000160607E01282068016838D021F040017E
:100FC0000160A07E01282068016833D021F0200153
:100FD0000160E07E0128206801682ED041F01001F8
:100FE0000160207F01282068016829D021F00801D4
:100FF0000160607F01282068016824D021F004018D
:101000000160D4E902010843D4E904121143084302
:101010006168491E08432168C861002060620120A0
:1010200084F82000002070BD41F08001C0E741F04D
:101030004001C5E741F02001CAE721F01001CFE7E8
:1010400041F00801D4E741F00401D9E710B586B0BA
:10105000044614216846FFF7EDF8134920688842DA
:101060001FD112480021026842F00072026000683D
:1010700000F0007005900D481038026842F0080238
:1010800002600068022200F0080005900320CDE90C
:101090000210CDE90002092004906946044800F0DE
:1010A00027FA06B010BD000000640040403802403E
:1010B000000C024070470000024B034A0021FFF77A
:1010C000C6BD00002E000020600000207047704761
:1010D0007047000070B5044690F82000012804D045
:1010E000606A40F40020606218E0022084F820006A
:1010F0002068016821F00101016000F0E7FA05466F
:101100000EE000BF00F0E2FA401B0A2808D9606A2E
:1011100040F400306062052084F82000012070BD9A
:1011200020684068C007EDD1606270BD70477047AD
:101130007047704770477047704700002DE9F843CB
:1011400004464FF00009CDF8009063484FF4165163
:10115000A56D0068B0FBF1F72E6894F85C100820CC
:1011600000FA01F131420FD021680A6852070BD50D
:101170000A6822F004020A6094F85C108840A860B3
:10118000606D40F00100606594F85C104FF001085C
:1011900008FA01F0304208D021684969090604D5EF
:1011A000A860606D40F00200606594F85C10042057
:1011B0008840304208D021680968890704D5A860B2
:1011C000606D40F00400606594F85C101020884069
:1011D000304218D021680968090714D5A860206832
:1011E0000168490304D50068000308D5A16C07E035
:1011F0000168C90503D4016821F008010160216C70
:1012000009B12046884794F85C102020884030427D
:1012100031D021680968C9062DD5A86094F8350039
:1012200005282068016806D0490347D500680003F7
:101230001DD4616C1CE021F0160101602068416939
:1012400021F080014161206C08B9A06C20B12068B8
:10125000016821F00801016094F85C103F2088408B
:10126000A86084F8349084F83580216D1FE0E16B2C
:1012700009B120468847606D00282BD0606DC007FB
:1012800014D0052084F835002068016821F00101A0
:1012900001600098401C0090B84203D820680068A4
:1012A000C007F6D184F8349084F83580E16C0029C9
:1012B00010D001B02046BDE8F04308470168C905D9
:1012C000D5D4016821F01001016084F8349084F8CD
:1012D0003580CCE7BDE8F883440000202DE9F041DB
:1012E000044600F0F3F906465CB1002584F834505A
:1012F000022084F835002068016821F001010160B6
:101300000DE00120BDE8F08100F0E0F9801B052828
:1013100005D920206065032084F83500F2E72068B5
:101320000068C007F0D12268116820480140D4E964
:1013300001031843D4E90336334318436369184360
:10134000A3691843E3691843236A18430843616A91
:10135000042903D1D4E90B13194308431060206812
:101360004069666A20F0070130460E4301270428D1
:101370000CD1A06A0643E06A40B12046FFF75EF94F
:1013800020B14020606584F83570BAE72068466176
:101390002046FFF73FF994F85C203F21914081609F
:1013A000656584F835700020ACE700003F8010F0E0
:1013B0002DE9F0410446866D90F83400002501289F
:1013C0000DD0012084F8340094F835700020012FEE
:1013D00007D084F8340002252846BDE8F0810220B9
:1013E000FBE7022784F8357060652046FFF750F967
:1013F00094F85C103F208840B0602068016841F09C
:1014000016010160206C20B12068016841F00801DC
:1014100001602068016841F001010160DCE7000023
:101420002DE9F0470024254A254E264F264D4FF042
:10143000010804281ED0DFF89490DFF894A0082853
:1014400027D0102821D11021104600F02DF9214E6F
:1014500001282ED03C7089F800402C7000224021D9
:10146000504600F02DF9002220213046BDE8F0471B
:1014700000F026B90421104600F016F938B930788A
:1014800028B1387818B185F80080BDE8F0872C7055
:10149000FBE70821104600F007F938B1347089F8ED
:1014A000004000222C7040215046DFE786F8008083
:1014B000EBE787F800800122D6E700000010024029
:1014C0000400002003000020020000200100002092
:1014D0000000024000080240044910B50A680242B8
:1014E00002D00860FFF79CFF10BD0000143C0140D3
:1014F0002DE9F84F00224FF0010803254FF00F0EA1
:101500000B6808FA02F42340A3426ED14E68012E04
:1015100005D0022E03D0112E01D0122E12D18668D2
:101520004FEA420C05FA0CF7BE43CF6807FA0CF7F6
:10153000374387604668A6430C79C4F3001494408F
:1015400034434460C668570005FA07FC8C6826EAF5
:101550000C06BC403443C4604C68022C01D0122CF1
:1015600013D1D40800EB8404A346D4F82090540788
:101570004FEAD46A0EFA0AF629EA06090E6906FA53
:101580000AF646EA0906CBF8206006680C7926EAD6
:101590000C0604F00304BC40344304604C68E400CF
:1015A00065D5364C266846F480462660246822F0CD
:1015B000030604F480440094314C3444A446D4F827
:1015C00008489607370F0EFA07F6B4432D4EB0427F
:1015D00001D1002624E02C4EB04201D101261FE0AB
:1015E0002A4EB04202D102261AE040E0284EB04214
:1015F00001D1032614E0274EB04201D104260FE0AA
:10160000254EB04201D105260AE0244EB04201D158
:10161000062605E0224EB04201D1072600E008264A
:10162000BE402643CCF808681E4E34684F689C4381
:10163000FF0300D51C4334601A4C241D26684F68F4
:101640009E43BF0300D51E432660164E08363468FD
:101650004F689C43FF0200D51C433460114E0C368A
:1016600034684F689C43BF0200D51C433460521C51
:10167000102AFFF445AFBDE8F88F0000443802405F
:101680000030014000000240000402400008024017
:10169000000C0240001002400014024000180240FA
:1016A000001C0240003C01400069084000D00120BD
:1016B0007047426931EA020200D109048161704732
:1016C0000AB1816170470904FBE7000001488068A6
:1016D000704700003800002070B5040011D0216868
:1016E0004CF6CC400860216845F255500860D4E9BA
:1016F000000141602168A0688860FFF7E7FF0546A8
:1017000009E0012070BD00BFFFF7E0FF401B30285B
:1017100001D9032070BD2068C0680028F4D1216879
:101720004AF6AA200860002070BD00684AF6AA2187
:10173000016000207047000002488168027811446F
:1017400081607047380000200B4810B5016841F4F3
:1017500000710160016841F480610160016841F439
:1017600080710160032000F071F8002000F006F89D
:1017700000F024F8002010BD003C024070B50D4D73
:1017800004464FF47A712878B1FBF0F00A490968F1
:10179000B1FBF0F000F0E4FA48B9102C07D20022B7
:1017A0002146501E00F032F800206C6070BD012010
:1017B00070BD000038000020440000200B4882B0BB
:1017C000016841F480410160006800F480400090AD
:1017D0000648001F016841F080510160006800F078
:1017E00080500090052002B000F030B8443802402C
:1017F000002809DB00F01F02012191404009800010
:1018000000F1E020C0F8001170470000F0B40E4B6A
:101810001B680C46C3F30223C3F10705042D00D94E
:101820000425191D072901D2002300E0DB1E012633
:1018300006FA05F1491E214099409E40761E164049
:101840003143F0BC00F0D0BE0CED00E0064900F0E2
:10185000070208684FF6FF03184040EA0220034AD7
:1018600010430860704700000CED00E00000FA052E
:101870002DE9F0470E46050065D0DFF81481D8F851
:101880000000F7B200F00F00B04207D288F80070F5
:10189000D8F8000000F00F00B04254D128683D4C49
:1018A000810712D5400703D5206840F4E05020603E
:1018B0002878000703D5206840F460402060206845
:1018C000A96820F0F000084320602878C0072DD0D8
:1018D000304968680839012812D0022813D003283B
:1018E00011D00968890700292DDA216821F0030148
:1018F00001432160FFF7EAFE814641F2883A0EE09B
:1019000009688903EFE709688901ECE7FFF7DEFE64
:10191000A0EB0901514502D90320BDE8F0872068FA
:10192000696800F00C00B0EB810FEFD1D8F800101F
:10193000404601F00F01B14207D90770006800F07E
:101940000F00B04201D00120E7E72878400705D515
:101950002068E96820F4E0500843206028780007F8
:1019600006D52068296920F4604040EAC100206063
:1019700000F018F82168084AC1F30311515CC8400F
:101980000649086006480068FFF7F8FE0020C4E733
:10199000003C024008380240A4280008440000200F
:1019A0003C000020154810B5006810F00C021448E7
:1019B00013D04110042A0FD0082A0ED10F4C241F37
:1019C0002268236802F03F025B0207D52068C0F35B
:1019D0008810A0FB010106E0084610BD2168C1F394
:1019E0008811A1FB00010023FEF7ECFB2168C1F385
:1019F0000141491C4900B0FBF1F010BD083802401C
:101A00000024F4002DE9F84F04006ED02078DFF8B0
:101A10003C93C007A9F104054AD009F1040001680C
:101A2000C1F38101012908D00068C0F381000228B8
:101A30000AD1D9F80000400206D52868800337D5BE
:101A400060680028E1D033E06068B0F5803F10D0D6
:101A5000B0F5A02F286810D020F4803028602868C6
:101A600020F4802028606068A8B1FFF72FFE0646AA
:101A70000DE0286840F48030F4E740F480202860CE
:101A8000F7E700BFFFF722FE801B642873D82868A1
:101A90008003F7D50CE0FFF719FE064605E000BF0E
:101AA000FFF714FE801B6428F0D828688003F7D461
:101AB0002078DFF89C8280074FF0000A3ED5A348CB
:101AC000001D016811F00C0F08D00068C0F3810000
:101AD00002280BD1D9F80000400207D428688007FB
:101AE00016D5E068012800D112E02BE1E068B8B11A
:101AF0000120C8F80000FFF7E9FD064605E000BF39
:101B0000FFF7E4FD801B0228C0D828688007F7D5BE
:101B10002868216920F0F80040EAC10028600DE043
:101B2000C8F800A0FFF7D2FD064604E0FFF7CEFD9F
:101B3000801B02281FD828688007F7D42078000768
:101B400022D5824E83486169703671B101210160EE
:101B5000FFF7BCFD074604E0FFF7B8FDC01B0228F5
:101B600009D830688007F7D50EE0C0F800A0FFF76D
:101B7000ADFD074605E082E0FFF7A8FDC01B022887
:101B80007DD830688007F7D42078400768D5DFF823
:101B9000BCB100270BF13C0BDBF80000C0000BD4FC
:101BA000DBF8001041F08051CBF80010DBF80000AA
:101BB000012700F080500090674E3068C00510D4B7
:101BC000306840F480703060FFF780FD009005E0E1
:101BD000FFF77CFD0099401A022850D83068C005F4
:101BE000F6D55A4EA0686C3601280FD0052830680B
:101BF00010D020F001003060306820F00400306028
:101C0000A068B8B1FFF762FD00900FE0306840F0C7
:101C10000100F4E740F004003060F7E7FFF756FDFD
:101C20000099411A41F28830814266D830688007B5
:101C3000F4D50EE0FFF74AFD009007E0FFF746FD00
:101C40000099411A41F28830814256D830688007A5
:101C5000F4D42FB1DBF8001021F08051CBF8001044
:101C6000A069C8B33949091D0968C1F38101022976
:101C70004AD00228504607D0C8F8600000E03CE097
:101C8000FFF724FD04463BE04746C8F86000FFF735
:101C90001DFD064605E000BFFFF718FD801B02286A
:101CA0002BD828688001F7D4D4E907010843A16A3A
:101CB0002A4A490802EB0141626A41EA821108435B
:101CC00094F82C1040EA0161C9F800100120386630
:101CD000FFF7FCFC044606E036E000BFFFF7F6FC29
:101CE000001B022809D828688001F7D52CE000BF26
:101CF000FFF7ECFC001B022802D90320BDE8F88F97
:101D000028688001F4D41FE00128F7D0D9F800003A
:101D1000E26900F48001914214D1226A00F03F018F
:101D200091420FD147F6C071626A0140914209D1D8
:101D3000A26A00F44031914204D1E16A00F070607F
:101D4000884201D00120D9E70020D7E704380240BB
:101D500000004742800E4742007000400000FFFF35
:101D600010B5401EB0F1807F01D3012010BD4FF0AF
:101D7000E02460610F21601700F036FC0020A061B4
:101D800007202061002010BD7047704770B590F8A3
:101D90003C20012A32D0012480F83C40022280F805
:101DA0003D2003685A689D6822F070060A68324335
:101DB0005A60134B02689A4214D0B2F1804F11D08E
:101DC000104B9A420ED0104B9A420BD00F4B9A42B6
:101DD00008D00F4B9A4205D00E4B9A4202D00E4BC0
:101DE0009A4204D1496825F080031943916080F834
:101DF0003D40002180F83C10084670BD022070BDB7
:101E0000000001400004004000080040000C0040B9
:101E100000040140004001400018004010B50400DB
:101E200003D094F83D0010B107E0012010BD002060
:101E300084F83C00204600F00DF8022084F83D00B4
:101E4000211D206800F036FB012084F83D000020B1
:101E500010BD000008B50068B0F1804F08D10548FA
:101E6000016841F001010160006800F0010000908C
:101E700008BD0000403802400168CA6842F0010213
:101E8000CA600068816801F00701062903D0016873
:101E900041F0010101600020704770B5044690F8E0
:101EA0003C00012817D0012584F83C50022084F81A
:101EB0003D002068826822F0770222F47F4282602F
:101EC0000868502830D00DDC20284DD005DC98B3B0
:101ED00010283BD148E0022070BD302844D0402873
:101EE00034D139E0602828D0702806D0B0F5805F62
:101EF0002CD0B0F5005F29D10AE0CB68D1E90121EF
:101F0000206800F03BFB2068816841F0770109E020
:101F1000CB68D1E90121206800F030FB206881689E
:101F200041F48041816011E0CA684968206800F08E
:101F300037FB5021206807E016E0CA68496820682E
:101F400000F03FFB6021206800F022FB84F83D5048
:101F5000002084F83C0070BDCA684968206800F021
:101F60001FFB40212068EFE7226801461046EBE79F
:101F7000704770B50446006801694FF00005C94319
:101F8000890715D4C168C943890711D4E91E0161C5
:101F900001202077206880698007204602D0FFF763
:101FA000E7FF04E000F098F8204600F096F8257767
:101FB00020680169C943490717D4C168C943490763
:101FC00013D46FF00401016102202077206880693A
:101FD00010F4407F204602D0FFF7CAFF04E000F073
:101FE0007BF8204600F079F8257720680169C9431D
:101FF000090716D4C168C943090712D46FF0080154
:102000000161042020772068C0698007204602D043
:10201000FFF7AEFF04E000F05FF8204600F05DF847
:10202000257720680169C943C90617D4C168C94327
:10203000C90613D46FF010010161082020772068D1
:10204000C06910F4407F204602D0FFF791FF04E002
:1020500000F042F8204600F040F82577206801693A
:10206000C943C90708D1C168C943C90704D1891E3A
:102070000161204600F032F820680169C943090671
:1020800009D4C168C943090605D46FF08001016114
:102090002046FFF779FE20680169C943490609D443
:1020A000C168C943490605D46FF04001016120466B
:1020B00000F038F820680169C94389060BD4C1686B
:1020C000C943890607D46FF0200101612046BDE8AD
:1020D0007040FFF75ABE70BD7047704710B500F0F2
:1020E000BBFB0B4B0B4903F10E020B48FEF7BAFC8E
:1020F000074B084903F116020748FEF7B3FC0748EF
:10210000FFF713FBBDE8104002210548FFF7D1BAE5
:102110001000002048000020240100204C01002075
:10212000000002407047FEE77FB500212048009183
:10213000019102911D4A0391026001244FF4403243
:102140000461C0E90121047680F82010194AC0E931
:102150000A210325C561C16080F830404461FEF763
:1021600060FB08B1FEF7B2FA022607200096CDE91F
:10217000014069460E48FEF7ABFA08B1FEF7A6FA31
:10218000CDE9005669460A48FEF7A2FA08B1FEF703
:102190009DFA0420CDE9000569460548FEF798FA46
:1021A000002801D0FEF792FA7FBD00000020014018
:1021B0007C0000200100000F0F4810B50D490160A0
:1021C0000721416000214FF480228160C0E90312A1
:1021D0004FF4A0024261017641768176C1760177A3
:1021E0004177FEF7A6FE002803D0BDE81040FEF7B9
:1021F0006DBA10BD0064004024010020054808B5F8
:10220000016841F480010160006800F480000090E2
:1022100008BD0000303802402DE9F04387B014219A
:102220006846FEF707F830480024016841F01001C5
:102230000160016801F010010591016841F0800121
:102240000160016801F080010591016841F0010120
:102250000160016801F001010591016841F004018C
:102260000160016801F004010591016841F0080175
:10227000016000681D4F00F0080005900022E22177
:102280003846FFF71DFADFF8689000222021484603
:10229000FFF716FA174E0C20CDE90006DFF858803C
:1022A0000125694602954046FFF722F91020CDE945
:1022B00000060220029069464046FFF719F9E22025
:1022C0000090CDE90154694638460394FFF710F9B0
:1022D00020200090CDE90154694648460394FFF759
:1022E00007F907B0BDE8F083303802400000024033
:1022F000000802400000311000100240094810B5EB
:1023000007490160032141604FF47A718160FFF752
:10231000E3F9002803D0BDE81040FEF7D7B910BD9F
:10232000003000404C01002010B50022114638203A
:10233000FFF76CFA3820FFF75BFA00220121092031
:10234000FFF764FA0920FFF753FA012211460A2029
:10235000FFF75CFA0A20FFF74BFA0222012108205E
:10236000FFF754FA0820FFF743FA002202211C204D
:10237000FFF74CFA1C20FFF73BFA00220321142040
:10238000FFF744FABDE810401420FFF731BA00000F
:1023900010B586B000241748009401940294039469
:1023A00004944FF08041059401604AF21041C0E965
:1023B00001146421C0E903148461FFF72FFD08B103
:1023C000FEF784F94FF48050009069460948FFF702
:1023D00064FD08B1FEF77AF92020CDE9040404A9D0
:1023E0000448FFF7D3FC002801D0FEF76FF906B0D0
:1023F00010BD000058010020FEE77047704770478D
:10240000FFF79AB930B593B030216846FDF712FF57
:1024100014210CA8FDF70EFF1A480025016841F0B1
:1024200080510160006800F08050119016480168EA
:1024300041F4804101600068102100F48040119057
:102440000A2000900120CDE9030105A9022481E8BA
:10245000310008200890A820CDE9090404200B9041
:102460006846FFF7CFFA0CA90F2081E831004FF43E
:10247000A0500F90E002109005210CA8FFF7F8F98A
:1024800013B030BD4038024000700040054801687C
:1024900041F47001016003494FF000608039086029
:1024A0007047000088ED00E00148FFF762BD0000C2
:1024B00058010020F0B50268254C264D264E274FC6
:1024C000274B4FF0804CA04209D0604507D0A8426E
:1024D00005D0B04203D0B84201D0984204D122F0D6
:1024E000700E4A6842EA0E02A0421BD0604519D025
:1024F000A84217D0B04215D0B84213D0984211D09C
:10250000184DA8420ED0184DA8420BD0174DA84226
:1025100008D0174DA84205D0164DA84202D0164D3E
:10252000A84203D122F44075CA682A434D6922F0BB
:1025300080022A4302608A68C2620A688262A042FC
:1025400001D0984201D10969016301214161F0BDC7
:10255000000001400004004000080040000C004062
:102560000004014000400140004401400048014097
:1025700000180040001C00400020004010B5846896
:1025800042EA032224F47F440A432243826010BDBE
:10259000826822F070020A4342F0070181607047AE
:1025A00010B5036A046A24F001040462846924F00B
:1025B000F00444EA021423F00A020A43846102622E
:1025C00010BD10B5036A23F0100303628369046A27
:1025D00023F4704343EA023224F0A00343EA0111DA
:1025E0008261016210BDFEE70907090E002804DBC5
:1025F00000F1E02080F80014704700F00F0000F1B7
:10260000E02080F8141D704702E008C8121F08C1BE
:10261000002AFAD170477047002001E001C1121F63
:10262000002AFBD17047000010B51F4C40F6D27055
:102630002288824205D86188814202D8A3888342D9
:1026400001D9012010BD501AFDF7FFFD00EE100A60
:102650009FED161B21F0004110EE100A53EC112BD8
:10266000FDF704FE01D2022010BD20884FF47A63EA
:10267000984205D86188994202D8A2889A4201D925
:10268000032010BDB2F5487F0CD9084440F24161E7
:10269000884205D90449012018390870042010BD6A
:1026A000052010BD002010BD180000200000000013
:1026B00000409F4070B5FFF7B7FF1B4C1B4E002535
:1026C000607106281CD2DFE800F0190303030C1622
:1026D000012280213046FEF7F3FFE58025816570F9
:1026E0000EE0012220213046FEF7EAFFE580258139
:1026F0000120207007E0E580258101E000F0ACF8C2
:10270000207800280FD008481830018840880844F5
:10271000B0F5C87F07D225703046BDE87040002272
:102720002021FEF7CDBF70BD000000200000024058
:10273000FFF70AF8FFF766FEFFF76EFDFFF75EFD95
:10274000FFF7F2FCFFF738FDFFF722FEFFF7D6FD9B
:10275000FFF7EAFD032232493248FEF7D9F8324842
:10276000FFF78AFBFDF734FFFDF70AFF2F4D10211D
:102770002846FEF799FF08B1012100E00021284C0E
:10278000183CE17021B1012220212948FEF798FF71
:1027900008212846FEF788FF38B10020254D20711A
:1027A0004FF4FA66607810B12CE00120F6E70027BC
:1027B000E78027813A4640212846FEF781FF002224
:1027C00020212846FEF77CFFE760154F4FF448783C
:1027D000B888404511D3A07878B1FEF777FF6061E3
:1027E000E06804E0FEF772FF6169401AE060B04201
:1027F00006D2A0780028EBD0F4E7E068B042E7D337
:1028000001206070002280212846FEF759FF012236
:1028100040212846FEF754FFFFF74CFFC2E70000B7
:10282000180000207C000020580100200010024009
:10283000000802400000024030B504460398641AC4
:10284000C51A6C43511A94FBF1F1194489B28142C3
:1028500000D8084630BD0000F8B50F4C4FF4AF6506
:102860000095208861880023084440F6D867400816
:102870003A461946FFF7E0FFA4F118060023F0805E
:102880000095208861883A46084440081946FFF7B9
:10289000D3FF3081F8BD000018000020000610169C
:1028A00000061016000000000000000001020304F2
:1028B00006070809D428000800000020480000008E
:1028C000082600081C2900084800002050050000C8
:1028D00018260008000000000000000000000000B2
:1028E00000000000000000000000000000000000E8
:1028F00000000000000000000000000000000000D8
:1029000000000000000000000000000001000000C6
:0C29100010000000000000000024F40093
:040000050800018965
:00000001FF
